:100000000C944B020C9483020C9483020C94830294
:100010000C9483020C9483020C9483020C9483024C
:100020000C9483020C9483020C94981D0C94541D20
:100030000C9483020C9483020C9483020C9483022C
:100040000C9483020C94A11E0C9483020C948302E2
:100050000C9483020C947D1E0C9483020C948302F6
:100060000C9483020C9483020C9483020C948302FC
:100070000C9483020C9483020C9483020C948302EC
:100080000C9483020C9483020C9483020C948302DC
:100090000C9483020C9483020C9483020C948302CC
:1000A0000C9483020C9483020C9483020501098052
:1000B000A101850319012AB700150126B700950192
:1000C00075108100C0050C0901A101850419012AE0
:1000D000A002150126A002950175108100C00660DE
:1000E000FF0961A1010962150026FF00952075082E
:1000F00081020963150026FF00952075089102C052
:1001000005010906A101050719E029E715002501E8
:10011000950875018102950175088101050719008F
:1001200029FF150026FF00950675088100050819AE
:10013000012905950575019102950175039101C08D
:1001400000000000000000000000000000000000AF
:10015000000000000000000000000000000000009F
:10016000000000007E0F00D4FFFFFFC700000078F2
:1001700000000000000000002A2B28000000000002
:100180000000000000000000000000290000000046
:100190002C1E3420212224342627252E362D3738B4
:1001A000271E1F202122232425263333362E3738BD
:1001B0001F0405060708090A0B0C0D0E0F1011127B
:1001C000131415161718191A1B1C1D2F3130232D47
:1001D000350405060708090A0B0C0D0E0F10111245
:1001E000131415161718191A1B1C1D2F3130354CF6
:1001F00000010101010101010101020202020202EA
:1002000002020203030303030303030404040404BC
:100210000404050505050506060606060707070783
:100220000708080808090909090A0A0A0B0B0B0C38
:100230000C0C0D0D0D0E0E0E0F0F0F1010111111D5
:100240001212131314141515161617171818191956
:100250001A1A1B1B1C1D1D1E1E1F202021222223BB
:100260002424252626272829292A2B2C2D2D2E2FFC
:1002700030313232333435363738393A3B3C3D3E13
:100280003F404142434445464748494A4C4D4E4F02
:1002900050515354555658595A5B5D5E5F616264C4
:1002A000656668696B6C6D6F7072737577787A7B51
:1002B0007D7E8082838587888A8C8E8F91939596A8
:1002C000989A9C9EA0A2A3A5A7A9ABADAFB1B3B5C8
:1002D000B7BABCBEC0C2C4C6C9CBCDCFD1D4D6D8A4
:1002E000DBDDDFE2E4E7E9EBEEF0F3F5F8FAFDFF42
:1002F0000000000000000000000000010204060AE7
:100300000F17202C3A4A5D71879DB3C7DAE9F5FCD7
:10031000FFFCF5E9DAC7B39D87715D4A3A2C2017D7
:100320000F0A0604020100000000000000000000A7
:100330002A005400550056004C005F006000610028
:100340005700C25C5C005D005E005800E60059008A
:100350005A005B00520001536200630050005100DC
:100360004F004600470048000000010049004A00D5
:100370004B000000E4004C004D004E000100010065
:1003800045003B003C00010001003D003E00010033
:100390000100010001000100010001000100010055
:1003A0000100010001000100010001000100010045
:1003B0000100010001000100010001000100010035
:1003C0000100010001000100010001000100010025
:1003D0000100010001000100010001000100010015
:1003E0000100010001000100010001000100010005
:1003F000010001000100010009025B00030100A0EF
:10040000FA090400000103010100092111010001A2
:1004100022400007058103080001090401000203CE
:1004200000000009211101000122220007058203BA
:100430002000010705030320000109040200010355
:100440000000000921110100012232000705840388
:100450002000011201000200000008F1F125000156
:1004600000010200011603570069006E0072007956
:1004700000200032003500740063000000120344C5
:10048000004500420052004F0047004C004500006C
:1004900000040309040011241FBECFEFDAE0DEBF21
:1004A000CDBF04B603FE18C08091920290919302D2
:1004B000A0919402B09195028730904BA740B04B29
:1004C00059F4109292021092930210929402109298
:1004D0009502E0E0F8E3099511E0A0E0B1E0EEEC70
:1004E000F6E402C005900D92A835B107D9F722E0D5
:1004F000A8E5B1E001C01D92A239B207E1F70E9460
:10050000BF1E0C943C230C940000E8EDF0E08081C9
:100510008E7F80831092E2001092DA001092E10048
:10052000A0EEB0E08C9181608C9380818F77808386
:1005300019BCA7EDB0E08C918E7F8C9380818F7E6B
:1005400080831092730208952091E4003091E500B9
:1005500095E6A9012091EC00822F817020FF06C052
:100560008091E80080FF06C080E008952091E800B7
:1005700022FD1AC080918002882389F0853089F09D
:100580008091EB0085FD0FC02091E4003091E500E3
:1005900042175307F9F29150E1F684E0089582E0A2
:1005A000089583E0089581E00895EF92FF920F93FC
:1005B0001F93CF937C018B010E94A402C82F81114D
:1005C00017C08091E80085FD0BC08091E8008E7710
:1005D0008093E8000E94A402882399F3C82F08C0E2
:1005E000F70181917F018093F1000150110949F7D2
:1005F0008C2FCF911F910F91FF90EF9008958091D4
:10060000820287FF13C08091E80082FF06C08091BC
:10061000E8008B778093E80004C08091800281110C
:10062000F2CF0895809180028823D9F38091E80069
:1006300080FFF8CF8091E8008E77ECCF982F9093D1
:10064000E900242F762F50E0891731F07091EC00EB
:100650002091ED005091F00021FD07C09F5F973081
:1006600071F78093E90081E008953091EB003E7FBF
:100670003093EB003091ED003D7F3093ED003091F1
:10068000EB0031603093EB007093EC002093ED00B1
:100690005093F0002091EE0027FDE0CF80E0089518
:1006A000B0E0A0E0E6E5F3E00C949822C8EDD0E0DD
:1006B00088818F7E8883E7EDF0E080818160808390
:1006C00084E082BF81E08093730288818E7F88837B
:1006D00002EE10E0F80110821092DA0081EEC82ECE
:1006E000D12CF601108288818F7788838881806879
:1006F000888388818F7D888319BC10928002109234
:10070000810210927F0210927E0290EEE92EF12C6F
:10071000F70180818B7F808388818160888342E0BC
:1007200060E080E00E941E03F60180818E7F80835E
:10073000F801808181608083808188608083F701F7
:1007400080818E7F8083888180618883CDB7DEB78A
:10075000E8E00C94B422FC01809188029091890217
:1007600086179707A0F06115710529F49091E800AC
:100770009E779093E80090E06115710551F4911116
:1007800008C08091E80082FF34C080E00895BC0179
:10079000F2CF809180028823C1F18530C1F1809130
:1007A000E80083FD30C08091E80082FDEACF8091AF
:1007B000E80080FFE1CF8091F3002091F200382F14
:1007C0006115710519F02830310558F091E0283095
:1007D000310509F090E02091E8002E772093E800A1
:1007E000CBCF81918093F100615071092F5F3F4F12
:1007F000E7CF80918002882341F0853041F08091DD
:10080000E80083FFBECF81E0089582E0089583E091
:100810000895089508958091750208952FB7F8946A
:1008200080918A0290918B02A0918C02B0918D02EE
:100830002FBF08959C01FC0132969FEF80E041910B
:10084000461751F09F3F19F4411101C0982F8F5F57
:100850008630A9F79F3F09F40895290F311D97FDB0
:100860003A95F9016283089520916E0230916F02EA
:100870002817390771F090936F0280936E02E09110
:100880006C02F0916D02309721F00084F185E02D2B
:100890000995089520916A0230916B022817390753
:1008A00071F090936B0280936A02E0916C02F09178
:1008B0006D02309721F00680F781E02D09950895AB
:1008C000E0916C02F0916D02309729F00190F08177
:1008D000E02D0995089580E00895FA01811101C085
:1008E000FB010995089580916302982F9E7F71F412
:1008F00080916302817082608093630280916602BE
:10090000873918F086E9809366020895843080F76D
:10091000F5CF80E00895F894E82FE295EF70F0E0CD
:1009200031A1282F2F7081E090E001C0880F2A9517
:10093000EAF7982F9095932391A392A1892B82A3F4
:10094000789408959091DA0192FF06C0282F2871BB
:100950002830F9F4877F846093FF06C0282F287120
:100960002831F1F4877E84612091DB0120FF06C0ED
:10097000382F38713830D9F4877F816021FF06C065
:10098000282F28712831D1F4877E816194FD877EDC
:100990000895282F24712430F9F68B7F8860DCCFEE
:1009A000282F2471243101F78B7E8861DDCF382F09
:1009B0003171313019F78E7F8860E0CF282F217197
:1009C000213121F78E7E8861E1CFCF93DF93EC0157
:1009D00082389105B1F108F040C08133910509F4E6
:1009E0009DC048F58932910509F48DC08A9709F4B4
:1009F0009CC0C11522E5D20708F0BDC0C11531E584
:100A0000D30708F024C1C83ED10508F0A3C0C13EF9
:100A1000D10588F5C83AD10508F08EC0C53AD10590
:100A200008F0F6C0C130D10531F1209721F1C43072
:100A3000D10508F545C08533910509F45FC0C99714
:100A4000C1F68091DA01837009F036C18091DB0133
:100A500083FF11C0C9E2D0E00EC0833E910599F139
:100A600070F4803E910501F1823E910511F680916E
:100A7000DA0182FD21C0CE01DF91CF910895863E3B
:100A8000910561F1873E910571F1843E910509F070
:100A9000B0CF8091DB0181FFEECF8091DA01C7EE0C
:100AA000D0E084FD0DC0E7CF8091DA0180FD33C036
:100AB0009091DB0190FFDFCFC3EED0E084FFDBCF6E
:100AC000D0E0C0E0D8CF8091DA0182FDF2C09091F1
:100AD000DB0190FDF1C084FFCECFF2CF8091DA012F
:100AE00083FDDDCFC8CF8091DA0183FDE8C090910E
:100AF000DB0191FFF0CFC4EED0E0BDCF8091DA01F1
:100B000085FFB9CFA7CF8091DA0185FDDBC0809149
:100B1000DB0183FFB0CFC9E3D0E0ADCF8091DA0134
:100B200086FFA9CFCAE2D0E0A6CF8091DA0186FF86
:100B3000A2CFC1E3D0E09FCFCF3BD10508F6C85A82
:100B4000D0E0CC0FDD1FC05FDE4F0990D881C02DF3
:100B5000D46491CFC11540E5D40708F064C0C11535
:100B600080E4D80708F05CC0CE019A9581159F41BA
:100B700008F481CFA5CFC11536E5D30718F5C11507
:100B800045E5D40708F07CC0C11584E5D80708F016
:100B900072C09E01237033279C2F96959695C115A0
:100BA000D34508F459C0C1E0D0E002C0CC0FDD1F2E
:100BB0002A95E2F730E2939FC0011124C82BD92B6C
:100BC000DA6859CFC1158AE5D80778F4C11529E547
:100BD000D20708F060C0C11538E5D30708F470CF1C
:100BE000DC2FCC27C06FD06A46CFCE01905681153E
:100BF000904208F065CF8D2F8F710E94A20490E083
:100C0000982F882788279F719C012C2BE90141C0D0
:100C1000C55AD0E0C35FDE4FC881D0E0D0642BCF8F
:100C2000DF70D06A28CFCE018370992721E030E0B1
:100C300002C0220F331F8A95E2F7C695C69580E25F
:100C4000C89FE0011124C22BD32BDD6814CFDC2F09
:100C5000CC27C16FD06A0FCFC1E0D0E002C0CC0F6B
:100C6000DD1F2A95E2F720E2929FC0011124C82BD4
:100C7000D92BDC6800CFDC2FCC27C46FD06AFBCE29
:100C80008C2F0E94A204C82FD0E0DC2FCC27CC27C9
:100C9000DF71D062F0CE8C2F8F700E94A20434E0FE
:100CA000D695C7953A95E1F7CF709C2FEC01D069A6
:100CB000E2CEC2EED0E0DFCEC0EED0E0DCCEC6EEBB
:100CC000D0E0D9CEC5E3D0E0D6CE8091D30181115A
:100CD0001092D301089580959091D201982390931A
:100CE000D20108958091C70190919601981301C097
:100CF00008958F5F8770FACF292F953078F585306A
:100D000068F590E035E0239F800D911D1124682F38
:100D1000677023E0969587952A95E1F7FC01EE0F21
:100D2000FF1FE80FF91FEC57FE4F50E040E080E056
:100D3000219130E0062E02C0369527950A94E2F7FD
:100D400021703327042E01C0220F0A94EAF7822B68
:100D50004F5F5F4F4330510559F7089580E0089584
:100D6000292F953098F5853088F590E035E0239F60
:100D7000800D911D1124282F277041E001C0440FE0
:100D80002A95EAF723E0969587952A95E1F7FC01E5
:100D9000EE0FFF1FE80FF91FEC57FE4F30E020E089
:100DA00070E05191DF011197CB01022E02C09695A0
:100DB00087950A94E2F7817081958527842385279A
:100DC0008C932F5F3F4F2330310559F70895982FAB
:100DD00092959F7011F0892F94E0282F26952695E3
:100DE00011F09E5F822F869509F09F5F892F0895ED
:100DF00080937002709372026093710280918002FE
:100E00008430F9F48093E9008FEF9091E8008150ED
:100E100095FD06C095ED9A95F1F700008111F5CF8B
:100E20008091E80085FF0DC050E040E063E070E095
:100E300080E792E00E94D5028091E8008E7780934F
:100E4000E8000895BC0184E00E94F8060895BC0102
:100E500083E00E94F8060895CF93DF93EC0181E0D0
:100E60008093E9008FEF9091E800815095FD06C0D6
:100E700095ED9A95F1F700008111F5CF8091E8008A
:100E800085FF14C050E040E068E070E0CE010E94B1
:100E9000D5028091E8008E778093E80088E0FE011B
:100EA000A6E7B2E001900D928A95E1F7DF91CF912C
:100EB000089581E08093E00080E28093D800109252
:100EC000C9008FE19EE40197F1F700C0000087E0C0
:100ED00090EBDC018093920290939302A093940292
:100EE000B093950288E19CE00FB6F894A8958093A2
:100EF00060000FBE90936000FFCF8091630280FD81
:100F00000AC0EBEEF1E0118210821282339652E0B9
:100F1000E336F507C1F7559A3BB13F7D2BB120620F
:100F20004FB7F8948BEE91E0FC015191CF0168E04E
:100F30002BB9000000C057FF3BB9550F000000C09F
:100F400000C000C03BB900C06A9591F7F2E083365B
:100F50009F0751F74FBF8FE594E00197F1F700C06D
:100F6000000008959091630290FF0DC030E0F901F8
:100F7000EE0FFF1FE20FF31FE551FE4F81836083E9
:100F800042830E947D0708959091630290FF0CC0F8
:100F9000EBEEF1E0818360834283339692E0E336A7
:100FA000F907C1F70E947D070895CF93DF93CFEE35
:100FB000D0E060E0CE010E94FB222196C11584E0C2
:100FC000D807B9F7DF91CF9108951F93CF93DF939F
:100FD000122F8430E0F46530D0F44530C0F4C42FD3
:100FE000D0E0CC0FDD1F9AE0699FC00DD11D112408
:100FF00092E3899FC00DD11D1124632FCE018796E6
:101000000E94FB22612FCE0188960E94FB22DF9175
:10101000CF911F910895AF92BF92CF92DF92EF923E
:10102000FF921F93CF93DF9380E3C82E83E0D82EE7
:10103000D0E07601C0E014C0F50125913491412F34
:101040006C2F8D2F0E94E50782E0A80EB11C1F5F58
:10105000153091F78AE0E80EF11CCF5FC53019F02A
:10106000570110E0E9CFDF5F82E3C80ED11CD43016
:1010700001F7DF91CF911F91FF90EF90DF90CF901C
:10108000BF90AF900895CF93C82F6FEF811162E2A8
:1010900083E290E00E94FB226FEFC11161E184E2E4
:1010A00090E00E94FB226FEFC11162E185E290E0C7
:1010B0000E94FB22CF91089580E00E94430860E0E7
:1010C00086E290E00E94FB220E940B080E94D50756
:1010D00081E00E94430808950F931F93CF93DF93FD
:1010E000843030F5653020F5453010F5C42FD0E060
:1010F000CC0FDD1F2AE0629FC00DD11D112432E309
:10110000839FC00DD11D1124CE0187960E94E72236
:10111000082F10E0102F0027CE0188960E94E722AA
:101120009801282BC901DF91CF911F910F9108954C
:1011300090E080E0F8CF462F843040F4753030F4F2
:10114000653020F4672F0E946C08089590E080E0DD
:101150000895CF92DF92FF920F931F93CF93DF9367
:101160006C01009191028091D401082BC7E0D0E07E
:1011700010E0FC2EC8010C2E02C0959587950A94AC
:10118000E2F780FD0CC02197A0F7F12C8F2DDF91A5
:10119000CF911F910F91FF90DF90CF900895B601EE
:1011A0008C2F0E949B080E94E504019761F3EECF0B
:1011B000CF93DF93EC010E94A908BE010E949B0817
:1011C0000E94E504DF91CF910895FC018381948111
:1011D000892B29F08081918189238F3F51F480E010
:1011E0000895843FE1F717C0883EA8F0813FB9F722
:1011F00012C0808191810E94D80892959F7096308C
:1012000099F358F4925F9F70923048F7803F19F03D
:1012100040F7883E20F781E008959A5FF4CF83E29B
:1012200090E00E94E722823289F484E290E00E94FA
:10123000E722813159F485E290E00E94E72291E0B3
:10124000823109F090E0892F8170089580E0FCCF11
:10125000CF9384E090E00E94E722C82F82E290E0E2
:101260000E94E722982F8C2FCF910895CF92DF9282
:10127000EF92FF926B017C010E947304B701A601FB
:1012800088E090E00E940D23FF90EF90DF90CF90D8
:101290000895B0E0A0E0EFE4F9E00C949422F82E79
:1012A000C62FD42FE22E8091630280FF24C08E7F50
:1012B000823079F4E42F473908F0E6E9F0E0E051B4
:1012C000FE4FC1111DC06491462FE62F8E2F0E9444
:1012D000C407F0926402C0936502D0936602EE20C8
:1012E00051F0609163027091640280916502909167
:1012F00066020E943609CDB7DEB7ECE00C94B0224E
:10130000CC2ED12CE491FE2FAE2EB12C06E0F09E17
:10131000C00111242FEF30E0B9010E946D22CB01F2
:101320004F2D50E0440F551FA5E5A89FB001A99F80
:10133000700D1124461B570B942E990C940EA90185
:101340004C195D094A9DD0014B9DB00D5A9DB00DC1
:1013500011244B2FC99DB0011124672F77278901D4
:10136000061B170BB8016A9D80016B9D100D7A9DBD
:10137000100D1124B901691971094B018C9CB00140
:101380008D9C700D9C9C700D1124672F7727261B58
:10139000370B2A9D60012B9DD00C3A9DD00C112457
:1013A0006D2D8230910589F040F4009709F48ECFBD
:1013B000019779F06B2F412F89CF8430910561F02F
:1013C00078F0069709F482CFF5CF6E2FEB2F4D2DD5
:1013D0007DCF6E2FE12F7ACF6B2F4E2FED2D76CF55
:1013E000EB2F4F2F612F72CFE3E6F2E0438128E02D
:1013F000421B08F440E021E0628181810E9449099A
:101400000895E3E6F2E0438128E0420F08F44FEF4D
:1014100021E0628181810E9449090895E3E6F2E0BA
:10142000628128E0621B08F460E021E04381818151
:101430000E9449090895E3E6F2E0628128E0620F24
:1014400008F46FEF21E0438181810E9449090895EA
:10145000E3E6F2E0818121E04381628188500E94CD
:1014600049090895E3E6F2E0818121E04381628148
:10147000885F0E9449090895CF93C82F0E94E7060C
:10148000882349F0813009F4A5C048E26BE78AE07F
:101490000E94C4079CC020E040E86FEF84EB0E94EC
:1014A000490924E148E26BE78AE00E94B20725E19E
:1014B00048E26BE78AE00E94B20726E148E26BE768
:1014C0008AE00E94B20727E148E26BE78AE00E94C7
:1014D000B20728E148E26BE78AE00E94B20723E105
:1014E00048E26BE78AE00E94B20726E048E26BE739
:1014F0008AE00E94B20727E048E26BE78AE00E9498
:10150000B20728E048E26BE78AE00E94B20729E0D0
:1015100048E26BE78AE00E94B20722E148E26BE70B
:101520008AE00E94B20725E048E26BE78AE00E9469
:10153000B20720E048E26BE78AE00E94B20721E0B0
:1015400048E26BE78AE00E94B2072AE048E26BE7D4
:101550008AE00E94B20721E148E26BE78AE00E943C
:10156000B20724E048E26BE78AE00E94B20723E07A
:1015700048E26BE78AE00E94B20722E040E065EAB9
:101580008FEF0E94B2072BE048E26BE78AE00E94EF
:10159000B20720E148E26BE78AE00E94B2072FE041
:1015A00048E26BE78AE00E94B2072EE040E065EA7D
:1015B0008FEF0E94B2072DE040E065EA8FEF0E94B6
:1015C000B2072CE040E065EA8FEF0E94B2078C2F53
:1015D000CF91089520E040E86FEF84EB0E94490925
:1015E00024E140E860E080E80E94B20725E140E89D
:1015F00060E080E80E94B20726E140E860E080E811
:101600000E94B20727E148E26BE78AE00E94B20736
:1016100028E140E860E080E80E94B20723E140E86A
:1016200060E080E80E94B20726E040E860E080E8E1
:101630000E94B20727E040E860E080E80E94B2071D
:1016400028E048E26BE78AE00E94B20729E040E820
:1016500060E080E80E94B20722E140E860E080E8B4
:101660000E94B20725E040E860E080E80E94B207EF
:1016700020E040E860E080E80E94B20721E040E816
:1016800060E080E80E94B2072AE040E860E080E87D
:101690000E94B20721E14FEF60E080E00E94B207B4
:1016A00024E04FEF60E080E00E94B20723E04FEFBC
:1016B00060E080E00E94B20722E040E065EA8FEF40
:1016C0000E94B2072BE040E860E080E80E94B20789
:1016D00020E14FEF60E080E00E94B2072FE04FEF83
:1016E00060E080E060CF80916702882319F081502C
:1016F0008093670260916302709164028091650239
:10170000909166020E9436090895809167028330A5
:1017100018F48F5F80936702609163027091640296
:1017200080916502909166020E9436090895809129
:10173000630280FF19C08170826080936302662318
:1017400051F0609163027091640280916502909102
:1017500066020E94360920E04091660260916502AF
:10176000809164020E9449090895809163028695E0
:10177000815009F481E061E00E94970B089561E0D7
:1017800081E00E94970B0895E3E6F2E083E0808316
:1017900011828FEF828386E9838314826081718155
:1017A000828193810E943609089568EE7EEF90E071
:1017B00080E00E94192360E082E090E00E94FB221A
:1017C00060E083E090E00E94FB221092D40160E090
:1017D00084E090E00E94FB2264E082E290E00E94BC
:1017E000FB2260E085E090E00E94FB2260E086E062
:1017F00090E00E94FB226FEF87E090E00E94FB22C6
:1018000040E050E0BA0188E090E00E940D2360E0E3
:101810008DE090E00E94FB2240E050E0BA0188E1B8
:1018200090E00E940D2360E087E190E00E94FB229F
:1018300040E050E0BA018CE190E00E940D2370E09E
:1018400060E080E290E00E94192340E050E0BA019D
:1018500088E190E00E940D2380E00E9443080E94EE
:101860005C0840E050E0BA018FE090E00E940D2358
:1018700040E050E0BA0183E190E00E940D2308951A
:101880008091D2019091D101892B80935A0190913E
:10189000D301992391F0892B80935A0120E08CE5A4
:1018A00091E0FC013191CF0131112F5FF1E08236DF
:1018B0009F07B9F721110E94650648E050E069ECE6
:1018C00071E08AE591E00E942F23892BA9F088E03E
:1018D000EAE5F1E0A9ECB1E001900D928A95E1F71B
:1018E000E0916C02F0916D02309731F00280F3814B
:1018F000E02D8AE591E00995089590E080E00E944E
:101900004A0490E080E00E9434041092D1010E94C9
:10191000400C08950E943C0A809391020E947D0C25
:10192000089580919102982F9670963021F48860E6
:101930000E948A0C0895877FFBCF21E030E001C030
:10194000220F8A95EAF720958091910282230E94C6
:101950008A0C08959091C801809589238093C801CD
:10196000282F277091F4282F082E000C330B921784
:10197000130659F09091DB0192FF07C0859585957C
:1019800085950E949D0C1092C8010895CF93C09137
:10199000DB01C2FB992790F9981791F080FBC2F9FF
:1019A000C093DB016091DA0184E090E00E94FB22A9
:1019B0006C2F82E290E00E94FB2282E00E94AA0C3F
:1019C000CF91089521E030E001C0220F8A95EAF717
:1019D00080919102822B0E948A0C08958093D401F9
:1019E0000E947D0C08951092D201ECE5F1E086E0B2
:1019F000DF011D928A95E9F70E947D0C0895AAE205
:101A0000B0E0E5E0FDE00C949D2282E892E02091B8
:101A1000F100DC012D93CD01B2E08A389B07B9F7C4
:101A200080918302833009F472C0B8F4813009F4E4
:101A300049C0823009F4B3C08091E80083FF8BC2B3
:101A400080918202909183029A3008F084C2E92F3B
:101A5000F0E0E25CFC4D0C9481228A3009F48EC0E7
:101A60008B3009F471C0893039F78091820281325C
:101A700019F78091860290918702009711F00297E2
:101A8000D9F68091E800877F8093E8008091E80094
:101A900082FF38C09091F3008091F200029731F4F8
:101AA0008091F100813011F0863021F48091F100B5
:101AB000809375028091E8008B778093E8000E9404
:101AC000FF02BACF80918202813A09F0B5CF8091AE
:101AD000E800877F8093E8008091860290918702DA
:101AE000892B61F468E086E792E070E00E94AB0326
:101AF0008091E8008B778093E8009ECF60E090E0D3
:101B000080E0F3CF809180028111C0CF95CF80918A
:101B10008202813A09F090CF8091860290918702EB
:101B2000892B09F089CF8091E800877F8093E800B6
:101B30008091E80080FFFCCF80910C018093F10040
:101B40008091E8008E77B9CF80918202813209F0CE
:101B500073CF8091860290918702892B09F06CCF18
:101B60008091E800877F8093E8000E94FF028091C7
:101B7000840280930C010E94F30C5ECF809182025C
:101B8000813209F059CF8091E800877F8093E80087
:101B90000E94FF0280918502809374024DCF809154
:101BA0008202813A09F048CF8091E800877F8093D4
:101BB000E8008091E80080FFFCCF80917402BECFE6
:101BC000803899F0823809F0C6C1809186028F7002
:101BD000873008F0C0C18093E9008091EB0085FB5D
:101BE000882780F91092E90006C080917E029091CA
:101BF0007F02911182609091E800977F9093E800B6
:101C00008093F1001092F1008091E8008E779FC1DF
:101C1000882309F48DC1823009F09DC1809184022E
:101C2000811190C1809186028F702FEF280F26308E
:101C300008F091C18093E9002091EB0020FF82C160
:101C4000933031F48091EB0080628093EB007AC195
:101C50009091EB0090619093EB0021E030E001C0A7
:101C6000220F8A95EAF72093EA001092EA00809109
:101C7000EB008860EACF81116EC1109184021F775A
:101C80008091E3008078812B8093E3008091E800CD
:101C9000877F8093E8000E94FF028091E80080FF28
:101CA000FCCF8091E30080688093E30082E0111113
:101CB00083E0809380024FC18058823008F04BC18E
:101CC00020918402309185022C3DE3E03E07A1F58E
:101CD00083E08A838AE289834FB7F894DE01139602
:101CE00020E03EE051E2E32FF0E050935700E49112
:101CF00020FF03C0E295EF703F5FEF708E2F90E002
:101D0000EA30C0F0C7968D939D932F5F243159F729
:101D10004FBF8091E800877F8093E8006AE270E01F
:101D2000CE0101960E94AB038091E8008B778093EF
:101D3000E80011C1C096E7CF80918602909187029A
:101D4000432F55274330510509F44AC078F54130F7
:101D5000510509F47AC08BE590E0E8EFF3E04230FA
:101D6000510509F0F8C02091E800277F2093E80092
:101D700020918802309189028217930708F49C0110
:101D800040E02115310509F065C0411163C0809123
:101D9000E80082FDC9CF80918002882329F2853036
:101DA00019F28091E80083FFF2CFBECF4132510596
:101DB00009F43CC04232510509F0CDC08330910591
:101DC00008F0C9C0FC01EE0FFF1FE55BFE4F01905C
:101DD000F081E02D885B9E4FDC018C9190E01AC071
:101DE000332721303105D1F02115310561F0223042
:101DF000310509F0B0C0E5E6F4E0E4918E2F90E003
:101E0000E5E6F4E007C0E1E9F4E0E4918E2F90E02C
:101E1000E1E9F4E0009709F49EC0A5CFEDE7F4E016
:101E2000E4918E2F90E0EDE7F4E0F4CF833091055C
:101E300008F091C0880F991FFC01EF5AFE4F0190E6
:101E4000F081E02D89E090E08ECF82E190E0E3E543
:101E5000F4E089CF80918002882309F465CF853032
:101E600009F462CF8091E80083FD5ECF8091E800A5
:101E700082FD8DCF8091E80080FF83CF9091F300A9
:101E80008091F2002115310519F08830910550F04C
:101E900041E0089709F040E08091E8008E77809358
:101EA000E8006FCF44914093F10031962150310901
:101EB0000196E8CF803809F04EC08091E800877F16
:101EC0008093E800809181028093F1009DCE811182
:101ED00042C0109184021230F0F58091E800877FB3
:101EE0008093E800109381020E94FF02112311F0F9
:101EF00084E005C08091E30087FDFACF81E0809304
:101F0000800242E061EC81E00E941E0342E261EC4B
:101F100084E00E941E0342E261EC82E00E941E0304
:101F200042E260EC83E00E941E038091800213C0B5
:101F300080918402813079F481E0933009F080E06F
:101F400080937F021092E9008091E800877F809360
:101F5000E8000E94FF028091E80083FF0AC08091A0
:101F6000E800877F8093E8008091EB008062809397
:101F7000EB00AA96E3E00C94B9220E94F30C2FEF39
:101F800084E39CE0215080409040E1F700C00000D5
:101F900088E19CE00FB6F894A895809360000FBE8E
:101FA00090936000FFCF882321F00E946B060E946F
:101FB000400C0895882339F09091D201982B90938A
:101FC000D2010E94400C0895882391F19CEF980F54
:101FD000913A80F4ECE5F1E022E631E09191891349
:101FE00003C0DF0111971C922E173F07B9F70E941B
:101FF000400C089590E2980F983050F4877091E06B
:1020000001C0990F8A95EAF7892F0E946B06EFCFDE
:102010009BE5980F933028F490E080E00E944A04FA
:102020000895885A873120F490E080E00E943404BB
:102030000895CF93C82F8823B1F08CEF8C0F813A8D
:1020400000F5ECE5F1E082E691E0DF012D91C217A9
:1020500061F08A179B07D1F76C2F8AE591E00E9407
:102060001A040E94400CCF9108952191C21303C01D
:10207000DF0111971C928E179F07B9F70E94400C41
:10208000EBCF80E28C0F883068F4C77021E030E03D
:1020900001C0220FCA95EAF78091D201822B80936A
:1020A000D201DFCFEBE5EC0FE33040F4F0E0E35F8B
:1020B000FE4F808190E00E944A04D5CFC85AC731B4
:1020C00090F6EC2FF0E0EE0FFF1FE05FFE4F8081F7
:1020D00091810E943404C7CF1F93CF93DF93182FB1
:1020E000D0E0C0E0893311F4C0E5D0E0812F0E9438
:1020F0001910209739F4812F0E94E40FDF91CF91BE
:102100001F9108958FE99FE00197F1F700C000004B
:102110002197EFCF0F931F93CF93DF93C62FD42F29
:10212000022FFC0182818823A9F0609390020E9413
:102130000E0490938F0280938E02C77081E001C0DD
:10214000880FCA95EAF70E94DA0FDF91CF911F91AD
:102150000F9108958091900268133DC020918E02E6
:1021600030918F024FB7F89480918A0290918B0240
:10217000A0918C02B0918D024FBF821B930B883CC3
:10218000910548F510E21D0F6D17B9F080E2860F3A
:10219000883040F4C77081E001C0880FCA95EAF723
:1021A0000E94D30F183048F481E09D2F977001C032
:1021B000880F9A95EAF70E94DA0F802F0E946C1020
:1021C000183018F6D77081E001C0880FDA95EAF769
:1021D0000E94D30FBACFC77081E001C0880FCA95A3
:1021E000EAF7F6CFA7E0B0E0E8EFF0E10C948E223A
:1021F0003C01DC0113968D919C911497892B41F041
:102200008C9111969C9189238F3F11F00C942C197D
:102210002796E2E10C94AA220E94A908182F682FA1
:1022200089819A810E94B00669817A81812F0E94FA
:102230009B08FC01815095454F018F3F910510F49B
:10224000B5E59B26D30112968C91882309F4CDC263
:10225000BFEF8B16910409F100F12AE282162DE5F9
:10226000920621F0109282014F0160C0809182019C
:1022700091E08927809382018091C801877041F2A3
:10228000D30112968C91882319F28091DB0182FF91
:10229000BFCF82E00E94AA0CBBCF8091820188232D
:1022A00009F438C11092820130EC8316910408F0D1
:1022B00089C080E88816910408F0F6C090E4891679
:1022C000910408F0BBC021E030E040E050E060E065
:1022D00070E080E090E0082D0E94C522E09162014C
:1022E0002E2BE09163013E2BE09164014E2BE09197
:1022F00065015E2BE09166016E2BE09167017E2BFC
:10230000E09168018E2BE09169019E2B2093620180
:1023100030936301409364015093650160936601BB
:10232000709367018093680190936901C4018251A1
:102330009F45409708F062C78FEF93E00E94E72225
:1023400081119ACF0EEE080D5FEEA52EB12C011172
:10235000D6C21C821B82442443944AE0342E850159
:102360000F5F1F4FC5010E94E72289831A828823CD
:1023700009F482CF9FEF980F933008F0CFC28A8381
:102380004982E2E0AE0EB11CC8010E94E7228B83B5
:10239000882309F471CF8E010F5F1F4FD8012C9154
:1023A0002223E9F2213009F0F3C211969C91119792
:1023B00012968C91913009F0B3C20E5F1F4F0E94AC
:1023C0006C10B4C2AFEF8A16910411F008F07BCF05
:1023D00021E030E040E050E060E070E080E090E03C
:1023E0008401005C11090E94C522E0917A012E2B24
:1023F000E0917B013E2BE0917C014E2BE0917D0131
:102400005E2BE0917E016E2BE0917F017E2BE091AF
:1024100080018E2BE09181019E2B20937A013093D5
:102420007B0140937C0150937D0160937E0170930A
:102430007F01809380019093810178CF21E030E08B
:1024400040E050E060E070E080E090E08401005403
:1024500011090E94C522E0916A012E2BE0916B01C7
:102460003E2BE0916C014E2BE0916D015E2BE091D3
:102470006E016E2BE0916F017E2BE09170018E2B2F
:10248000E09171019E2B20936A0130936B01409380
:102490006C0150936D0160936E0170936F01809396
:1024A00070019093710142CF21E030E040E050E0B4
:1024B00060E070E080E090E08401005811090E9423
:1024C000C522E09172012E2BE09173013E2BE09129
:1024D00074014E2BE09175015E2BE09176016E2B1D
:1024E000E09177017E2BE09178018E2BE0917901CC
:1024F0009E2B20937201309373014093740150938B
:1025000075016093760170937701809378019093C1
:1025100079010CCFB0E48B16910408F06EC0A09145
:102520006201B09163015090640140906501309068
:10253000660120906701209168012E833091690126
:102540003F8321E030E040E050E060E070E080E078
:1025500090E0082D0E94C522A22EAA22B32EBB22F3
:10256000C42EC520D52ED420E62EE320F72EF2204F
:102570000E8108231F8119230E94DE2209F074CEE8
:1025800080EC8816910408F09AC090E889169104AE
:1025900008F0FBC0E0E48E16910408F0C6C021E00C
:1025A00030E040E050E060E070E080E090E0082D36
:1025B0000E94C52220953095409550956095709564
:1025C000809590952A233B23452154216321722134
:1025D000AE818A23BF819B232093620130936301E4
:1025E00040936401509365016093660170936701A5
:1025F00080936801909369013FCE80E8881691042A
:10260000F0F4A0916A01B0916B0150906C01409080
:102610006D0130906E0120906F01909170019E834A
:10262000209171012F8321E030E040E050E060E034
:1026300070E080E090E08401005411098BCF30EC11
:1026400083169104F0F4A0917201B091730150903F
:10265000740140907501309076012090770180914F
:1026600078018E83909179019F8321E030E040E0F2
:1026700050E060E070E080E090E0840100581109D3
:1026800069CFA0917A01B0917B0150907C0140907C
:102690007D0130907E0120907F01209180012E836A
:1026A000309181013F8321E030E040E050E060E084
:1026B00070E080E090E08401005C11094BCFFFEFF7
:1026C0008F16910411F008F06ACF8401005C1109A3
:1026D00021E030E040E050E060E070E080E090E039
:1026E0000E94C52220953095409550956095709533
:1026F000809590952A233B23452154216321722103
:10270000EE818E23FF819F2320937A0130937B01FA
:1027100040937C0150937D0160937E0170937F0113
:102720008093800190938101A7CD84010054110909
:1027300021E030E040E050E060E070E080E090E0D8
:102740000E94C522209530954095509560957095D2
:10275000809590952A233B234521542163217221A2
:10276000EE818E23FF819F2320936A0130936B01BA
:1027700040936C0150936D0160936E0170936F01F3
:10278000809370019093710177CD840100581109F5
:1027900021E030E040E050E060E070E080E090E078
:1027A0000E94C52220953095409550956095709572
:1027B000809590952A233B23452154216321722142
:1027C000AE818A23BF819B232093720130937301D2
:1027D0004093740150937501609376017093770173
:1027E000809378019093790147CD2FEF8216910461
:1027F00009F068F530E483169104A8F5A090620111
:10280000B0906301C0906401D0906501E0906601D2
:10281000F0906701A0916801B091690121E030E07A
:1028200040E050E060E070E080E090E0082D0E9421
:10283000C522A222B322C422D522E622F722082FE3
:102840000A23192F1B230E94DE2209F415CDE03143
:10285000BFE5FB0709F4F5C0E1312FE5F20709F008
:102860000CC682E0EFC080E888169104E0F4A090E6
:102870006A01B0906B01C0906C01D0906D01E09046
:102880006E01F0906F01A0917001B091710184010F
:102890000054110921E030E040E050E060E070E0D9
:1028A00080E090E0C4CF90EC89169104A0F4A09051
:1028B0007201B0907301C0907401D0907501E090E6
:1028C0007601F0907701A0917801B09179018401AF
:1028D00000581109DFCFA0907A01B0907B01C09021
:1028E0007C01D0907D01E0907E01F0907F01A0916D
:1028F0008001B09181018401005C1109CBCFA1144A
:10290000A4E0BA0609F4B8CCC5010E94E7228111FF
:1029100001C00150BFEFAB1ABB0A19CD58013BCD26
:10292000923039F40E5F1F4F0E9419100F5F1F4F36
:1029300035CD933029F40E5F1F4F0E94E40FF6CF80
:10294000943019F00F5F1F4FF1CF0E5F1F4F30E033
:1029500020E0B8016F5F7F4FF80141818053990BF0
:102960008A30910550F02150310900F38FE99FE042
:102970000197F1F700C00000F6CF329EF001339EC0
:10298000F00D11249C012E0F3F1F842F8B01E1CFEE
:10299000E22FF0E0E059FE4F5490822F8695869505
:1029A000869590E0FC01E05AFE4F84902770912CB0
:1029B000022E02C0959487940A94E2F7A1E08A223D
:1029C0009924FC01E05BFE4FC490D12C022E02C082
:1029D000D594C7940A94E2F7B1E0CB22DD24FC0140
:1029E000E05CFE4FE490F12C02C0F594E7942A9548
:1029F000E2F7E1E0EE22FF248114910419F081EE68
:102A00000E941910C114D10419F086EE0E94191009
:102A1000852D0E946C10C114D10419F086EE0E941D
:102A2000E40F8114910419F081EE0E94E40FE11487
:102A3000F10409F47BCF8CE2C2CC81E00E94E20C6D
:102A400003C081E00E949D0C0E94910C15CC82E095
:102A5000F5CF27E245EE65EEFAC326E241EE60EEE1
:102A6000F6C327E245EE64EEF2C326E241EE62EEE3
:102A7000EEC328E241E0EFCF35EA83163DE5930649
:102A800009F4BBC4F0F491E689169DE5990609F4B2
:102A9000B4C4A6E18A16ACE59A0609F0F2C38091A7
:102AA000D2018A7A91E009F490E09093830169E27F
:102AB000811165E38AE591E00E941A040E94400CAE
:102AC000DBCBC4018D5A9D45039718F796C48091BE
:102AD000DA018062B7E08B16BCE59B06C1F18091FC
:102AE000DA018061E8E08E16ECE59E0680F18091C7
:102AF000DA0180642CC0FDE08F16FCE59F0609F426
:102B0000D1C070F48091DA018E7F3BE083163CE502
:102B10009306E9F008F4BEC08091DA018D7F17C0FA
:102B20009FE089169CE5990609F4CCC008F4BEC064
:102B3000B0E18B16BCE59B0609F4C8C08091DA01B0
:102B40008F7BE1E18E16ECE59E0609F085C480934B
:102B5000DA0182C4FFEF8F16FCE59F0609F4C4C0BA
:102B6000D8F53AEF83163CE5930609F485C0D0F416
:102B700094E189169CE5990609F4C4C008F4B0C034
:102B8000B5E18B16BCE59B0609F066C48091DA01BD
:102B900082FB992790F921E0922790FB82F990FB24
:102BA00083F9D5CFECEF8E16ECE59E0609F482C0D2
:102BB00008F466C02DEF82162CE5920609F47EC05B
:102BC0008091DB0183603EEF83163CE5930609F0BC
:102BD00043C48093DB0140C481E688168DE59806E6
:102BE00009F49BC0A0F4A1E08A16ADE59A0609F4A9
:102BF00092C008F47DC060E0E2E08E16EDE59E062E
:102C000009F02AC48EE090E00E94FB2225C4FDEA70
:102C10008F16FDE59F0601F168F49091DA01892F86
:102C20008E7F90FF816035EA83163DE5930609F4B7
:102C30008ECF12C48EEA88168DE5980679F19FEA48
:102C400089169DE5990609F007C49091DB01892F4B
:102C5000877F93FF8860BDCF8091DB018860B9CF0B
:102C60008091DA01826073CF8091DA0184606FCF46
:102C70008091DA0188606BCF8091DB018160A9CF00
:102C80008091DB018260A5CF0E94F30C8091DA0174
:102C900080685DCF8091DA018C6059CF8091DB0133
:102CA000877F97CF8091DA018B7F51CF8091DA01B6
:102CB000877F4DCF8091DB018E7F8BCF8091DB01B1
:102CC0008D7F87CF8091DA018F7E41CF8091DA01AD
:102CD0008F7D3DCF0E94F30C8091DA018F7737CF43
:102CE0008091DA01837F33CF8091DB018C7F71CFBC
:102CF0008091DB01982F909591708E7F892B90FBAE
:102D000081F967CF0E94F30C9091DA01892F97FB2C
:102D100087F980581CCF61E075CF9091DA01892F37
:102D20008F7E94FF806113CF85E3C6C3816080935B
:102D3000630261E086950E94970B9ECA45EB5BE0BB
:102D40006FEB7BE00E946D0497CA4FEB5BE065EB95
:102D50007BE0F8CF48E25AE062E37AE0F3CF44EF59
:102D600059E061E07AE0EECF61E081E0E4CF0E94DB
:102D7000F30C3FEF84E39CE0315080409040E1F75A
:102D800000C000000E9459078091DB0182FB882768
:102D900080F991E089270E94C60CF30182810081AD
:102DA0001181882309F448C0C8010E94A908F82E9F
:102DB000682FC8010E94B006B8018F2D0E949B08A1
:102DC0000E94E5048C01A82ED3011296FC90129764
:102DD0001596DC90D2943FE0D3228091C801877091
:102DE000C1F0CF2CFF20B1F0812F807F803421F003
:102DF00080E2800F883068F08091DB0182FF09C09B
:102E000082E00E94AA0C8091C8018770CC24C394F0
:102E10008111C12CB12EB2942FE0B222BBE0BB15C0
:102E200008F476C0EB2DF0E0E85BFC4D0C948122B9
:102E300081E0B1CF80E0AFCFC8010E947C06F82EC0
:102E4000BBCFE12FEF70EE2E107F19F0E29490EFE0
:102E5000E922FF20B9F0EE2069F080E2800F88308F
:102E600010F0A11009C08091D201E82AE092D201AD
:102E70000E94400C802F4AC08091D101E82AE09244
:102E8000D101F6CF802F0E94E40FEE2009F440C05C
:102E9000005E083010F0A11004C08E2D0E946B0659
:102EA00006C0E0948091D101E822E092D1010E9415
:102EB000400C2EC0F12FFF70EF2E107F103219F052
:102EC000E29480EFE822AA2089F021E0A21609F41A
:102ED00067C0FF2009F471C0DD2009F467C0F30169
:102EE000858180FFC7CF8F70858360C02091DB0113
:102EF00022FD34C0FF2061F1EE2039F08091D20133
:102F0000E82AE092D2010E94400C80E00E94191051
:102F1000AB2DA850BB0B149710F40E946004CC207A
:102F200009F476C98091C80180FD72C9F30112824B
:102F30008595859585950E94E20CC3010E94F2104B
:102F40008091C8018595859585950E949D0C60C9E5
:102F500080E00E94E40FEE20D9F29FCFFF2099F08D
:102F60009091D3018E2D892BD11003C00E94DA0FCE
:102F7000CFCF31E0D312FACF22FFCACF891741F267
:102F80008093D301C5CFD11006C00E9465068E2D57
:102F90000E94D30FBDCF81E0D81609F4B9CFF5CF89
:102FA000FF2031F095E09D1508F4B2CF8E2DDECFD5
:102FB000A4E0AD1508F4ACCFEACFDD2041F3F9E38E
:102FC000AF1209C02FEF37EE83E021503040804030
:102FD000E1F700C00000802F0E94E40F99CF812FFD
:102FE00086958695837061F0813009F091CFC80194
:102FF0009370F11002C090E080E00E94340488CF0A
:10300000C8019370F11002C090E080E00E944A0471
:103010007FCF812F837089F5F1107ACF402F4295B1
:1030200046954770440F440F802F8F70042E01C0C7
:10303000880F0A94EAF7202F207104FF07C02FE0C1
:1030400030E001C0220F4A95EAF7209516951695B3
:103050001370123069F050F43091D401113029F01E
:10306000822B83230E94EE0C53CF832B822BFACF2B
:10307000282B8091D4018227F5CF8695FF2011F06F
:10308000812F8170882309F443CF402F42954695C4
:103090004770440F440F802F8F70042E01C0880F9B
:1030A0000A94EAF7202F207104FF07C02FE030E0D8
:1030B00001C0220F4A95EAF72095169516951370D0
:1030C000123069F050F430919102113029F0822BC6
:1030D00083230E948A0C1CCF832B822BFACF282BB0
:1030E000809191028227F5CF1F70FF2029F0812F58
:1030F0000E94E20C802F3ACF802F0E94D30F812FA5
:103100000E949D0C05CF802F92EFA916B1F19A1560
:1031100070F0A0EFAA16D1F0B1EFAB1691F0FF203E
:1031200009F45CC0D110A6CE812F8F712AC0E3EFC5
:10313000AE1651F1F4EFAF12F2CF8091DB0182FDB8
:103140002FC0812F8F71FF20D9F21BC0FF2081F08B
:1031500024E02D1508F4DCCE1F7181E090E0012EF3
:1031600001C0880F0A94EAF7909191028927B1CFA4
:1031700035E03D1508F4CCCEEFCF812F8F71F110E3
:10318000BFCF0E94E20CC4CE80E0FF2009F4A1CFA3
:103190001F7181E0012E01C0880F0A94EAF799CFD0
:1031A000FF2089F01F71812F0E94E20C8091DB01CA
:1031B00082FF07C0A8E01A9FC0011124836080939A
:1031C000C801812FDECF81E00E94AA0CB1E0BD15BD
:1031D00008F09ECE82E00E94AA0C9ACEDD2059F023
:1031E000893309F0F8CEEFEFF7EE23E0E150F0403D
:1031F0002040E1F7EECE812F8F7182CFF0E18F1664
:10320000FFE59F0609F419CC21E182162FE592060D
:1032100009F41DCCE3EF8E16ECE59E0609F41DCCF7
:1032200008F0CAC028ED82162CE5920609F411CCEC
:1032300039ED83163CE5930609F41BCC87ED88161F
:103240008CE5980609F0C6C026E241EE61EEC301A6
:103250000E948A100C943C1185E0F301DE01119666
:1032600001900D928A95E1F7D30112962C918981F4
:103270009A8121110C940C110E947C06182F0C9439
:1032800014118AE588168DE5980609F4D1CD78F4F5
:103290008114ACE59A0609F46ACDBEED8B16BCE547
:1032A0009B0609F07ACD0E94D50B0E94BD0FECE57C
:1032B0008E16EDE59E0609F467CD08F4BBCD27EA2E
:1032C00082162DE5920689F368CD8091D201827233
:1032D000E93C3CE5F30709F442CD08F045C0E53C84
:1032E000ACE5FA0709F436CD48F5E33C2CE5F207E6
:1032F00009F424CD08F029CDE23CFC4509F04DCD80
:103300008091630280FF12CD8E7F80936302609173
:1033100063027091640280916502909166020E943E
:103320003609EFEFF0E722E0E150F0402040E1F70E
:1033300000C000000E947D070C943C114EE05AE052
:103340006BE17AE0E73C9CE5F90709F4FBCC42E34A
:103350005AE068E27AE0E83CFC4508F4F3CC4BE143
:103360005AE06EE07AE0EECCED3CBCE5FB0709F4F8
:10337000FBCCB0F443E75BE065E87BE0EB3C3CE58D
:10338000F30709F4DFCC41E05AE064EF79E0EC3C6C
:10339000FC4508F4D7CC45E85BE063E77BE0D2CCA2
:1033A000E63DACE5FA0710F40C943C11ED35FD4513
:1033B00011F40C943C11F1CC95EF89169CE599061B
:1033C00009F453CB08F44DCBB6EF8B16BCE59B0646
:1033D00009F48AC010929002F3E08F16FDE59F0673
:1033E00008F04ACB2AEF82162CE5920630F4C4018D
:1033F00082509C45449708F04CCB0E94280990933A
:10340000DB018093DA01A2E18A16ACE59A0609F4A1
:1034100061CC08F09FCBE9E08E16ECE59E0609F43E
:1034200033CC08F068CB25E082162CE5920609F42F
:103430001FCC08F04CCB83E088168CE5980609F485
:103440000FCC08F011CC8091DA018160A2E08A16DD
:10345000ACE59A0609F47BCB6091DA011091DB01AF
:1034600084E090E00E94FB22612F82E290E00E94C3
:10347000FB220E94F30C0C943C11E33F2CE5F20775
:1034800009F4EBCA30F5E83D8CE5F80709F4E1CA28
:10349000E93D9CE5F90709F4ECCAE73DACE5FA071C
:1034A00009F4D2CEE6313CE5F30709F00ECF809166
:1034B0008301811139CC89E2ECE5F1E09191891326
:1034C00003C0DF0111971C92B1E0E236FB07B1F7B0
:1034D000F5CAE53FBCE5FB0709F4C7CA08F4C1CA51
:1034E000E63F3CE5F307F1F627E245EE66EEAFCEA8
:1034F0001F93CF93DF9380919501807F09F049C09E
:1035000080919201882309F444C08091C701D09131
:1035100096016091900170919101A0919301B091F9
:103520009401C62FC72316E0D81799F190E01097A1
:1035300011F0CF3F19F401968770F6CF189F9001D4
:10354000199F300D1124F901E956FE4F41814713AF
:10355000F2CF40814613EFCF42814111ECCF43813E
:1035600054814A1B5B0B483C510528F7809195011B
:103570008F70806180939501F901E456FE4F808140
:103580008F708061808380E991E00E94F2100E9438
:103590007206DF91CF911F910895A1E1B0E0E3EDB4
:1035A000FAE10C9496228C0185E0F801DE011D966B
:1035B00001900D928A95E1F7F801E28080E9A82E4A
:1035C00081E0B82E609193017091940161157105AD
:1035D00009F426C19091900140919101892F842393
:1035E0008F3F09F41DC120813181C380D480F090C8
:1035F0009201F601E61BF70BFF2009F4DCC0809175
:103600009501582F507FE83CF10508F09FC05111FB
:103610006BC0FE2C431314C0921312C0E11010C0F3
:103620008F70806180939501C5010E94F210809196
:103630009501F80185838F2D6196EAE00C94B22202
:10364000C114D10429F0822F83238F3F09F003C1D5
:1036500080E0F82FF170DF2E80FF3CC08091C70121
:103660004091960156E0841315C02D873E878D85C5
:103670009E850E94D808292F22952F702230F0F0C5
:10368000243018F59F70F1F0F8019581907FD1F406
:10369000D12C1EC090E0589FF001599FF00D1124CD
:1036A000E956FE4F6181361306C06081261303C0C0
:1036B0006281E6120FC001968770D5CF9F7011F01E
:1036C000882331F3805E883018F3C8010E94F2101D
:1036D000FD2CB1CFEE2009F4AECF80919501816031
:1036E00080939501F12CA7CF431306C0921304C019
:1036F000F801EE2009F479C0C8010E94E50888238A
:1037000009F1EE20F9F080919501803270F020915E
:1037100090013091910138872F831986DB86CA8604
:103720008C87CE0107960E94F21086E0F801A0E98E
:10373000B1E001900D928A95E1F70E94781AFF247A
:10374000F39479CFC8010E94F210F9CF51110AC049
:1037500080E991E00E94F21086E0F50111928A95CD
:10376000E9F7C0CF43130FC092130DC0E1100BC097
:10377000F8018583C8010E94F21086E0F5011192DC
:103780008A95E9F758CFC8010E94E5088823D1F24D
:10379000EE20C1F280919501803238F220919001A3
:1037A000309191013A8329831B82DD82CC828E8302
:1037B000CE010196B8CFE83CF105F8F6FE2CEE20DC
:1037C00009F243131FC092131DC08091950180FD23
:1037D00010C0982F907F69F0F8018583903F31F0F9
:1037E000982F907F905F8F70892B8583C8010E94EE
:1037F000F21086E0F801A0E9B1E001900D928A95FF
:10380000E1F719CFC8010E94E50881118ECF8091A0
:103810009501816080939501C8010E94F2100BCF41
:10382000EE2009F48FCFC8010E94E508F82E882306
:1038300009F488CF86E0F801A0E9B1E001900D928B
:103840008A95E1F780919001909191010E94D808AA
:103850000E94781AF0CE81E08E25FBCEA7E1B0E081
:10386000E4E3FCE10C949D224B8B5C8B6D8B7E8B97
:103870008F8B61111092D1011A8A198A85E0FE019D
:103880007396DE011D9601900D928A95E1F786E010
:10389000FE013D96DE01179601900D928A95E1F7A3
:1038A000CE0107960E94CD1A882359F016E0809128
:1038B000C70190919601891343C06796E3E00C9489
:1038C000B92286E0FE013796DE01119601900D9235
:1038D0008A95E1F78A859B85892B41F38F819885AD
:1038E00089238F3F19F32091960130E0C901019699
:1038F000877099274091C7014817190671F40E94F3
:10390000F30C109296011092C70186E0E0E9F1E015
:10391000DF011D928A95E9F7C9CF96E0929FD00109
:10392000939FB00D1124A956BE4FFE013196019010
:103930000D929A95E1F7809396010E947206B6CF98
:10394000819FC001112489569E4F0E94CD1A882361
:1039500009F4B3CF8091C70190E001968770992751
:103960008093C701A4CFA5E0B0E0E9EBFCE10C94A3
:1039700095228E010F5F1F4F85E0F80111928A9505
:10398000E9F78EE3C82E81E0D82EF12CE12CAA2491
:10399000A394B12CF60181916F018F3F09F443C0CC
:1039A000F894E82FE295EF70F0E021A18F70A50167
:1039B00002C0440F551F8A95E2F7CA01922F982B37
:1039C00091A392A18095892382A3789400C0E3E417
:1039D000F1E0912C31E021912F3F09F457C0A22F43
:1039E000A295AF70B0E090968C9190E02F7002C0DD
:1039F000959587952A95E2F780FD48C0832F982AF0
:103A0000330F51E0E834F50731F7F6013197808143
:103A10008F3F11F00E948B0480EA8A95F1F7F8013C
:103A2000EE0DFF1D9082EFEFEE1AFE0AF5E0EF16A5
:103A3000F10409F0AFCF45E050E0B80185ED91E029
:103A40000E942F23892B41F085E0F801A5EDB1E01C
:103A500001900D928A95E1F745E050E066EE71E045
:103A600085ED91E00E942F2325E0E5EDF1E0A6EE43
:103A7000B1E001900D922A95E1F721E0892B09F43C
:103A800020E0822F2596EBE00C94B12280E0B7CFA6
:103A900090E080E00E94F522883E9E4F19F40E943B
:103AA0000F09089580E008951F920F920FB60F92AC
:103AB00011242F933F934F935F936F937F938F9333
:103AC0009F93AF93BF93CF93DF93EF93FF93D091E7
:103AD000E900DF708091EC00C82FC17080FDC0E864
:103AE0001092E9008091F000877F8093F000789435
:103AF0000E94FF0C1092E9008091F0008860809392
:103B0000F000CD2BCF70C093E900FF91EF91DF91D2
:103B1000CF91BF91AF919F918F917F916F915F9165
:103B20004F913F912F910F900FBE0F901F901895BE
:103B30001F920F920FB60F9211242F933F934F9322
:103B40005F936F937F938F939F93AF93BF93EF9305
:103B5000FF938091E10082FF09C08091E20082FF23
:103B600005C08091E1008B7F8093E1008091DA00B5
:103B700080FF24C08091D80080FF20C08091DA00AF
:103B80008E7F8093DA008091D90080FFA9C080E108
:103B900089BD82E189BD09B400FEFDCF81E080933B
:103BA000800280917302811109C00E9485020E94E7
:103BB00050038091E20084608093E2008091E100F4
:103BC00080FF1CC08091E20080FF18C08091E2005D
:103BD0008E7F8093E2008091E20080618093E2001A
:103BE0008091D80080628093D80019BC85E08093D2
:103BF000800280916F00826080936F008091E1006D
:103C000084FF32C08091E20084FF2EC080E189BD34
:103C100082E189BD89B5982F917080FFFBCF80919B
:103C2000D8008F7D8093D8008091E1008F7E8093B3
:103C3000E1008091E2008F7E8093E2008091E200BB
:103C400081608093E20080918102882309F44EC054
:103C500084E0809380028091800280916F008D7F4C
:103C600080936F000E9460048091E10083FF27C071
:103C70008091E20083FF23C08091E100877F8093E1
:103C8000E10082E080938002109281028091E10045
:103C90008E7F8093E1008091E2008E7F8093E2002E
:103CA0008091E20080618093E20042E060E080E089
:103CB0000E941E038091F00088608093F000FF91C5
:103CC000EF91BF91AF919F918F917F916F915F9194
:103CD0004F913F912F910F900FBE0F901F9018950D
:103CE00019BC109280021092730268CF8091E30099
:103CF00087FD93E090938002AECF78941F921FB619
:103D00001F9211248F939F93AF93BF9380918A0248
:103D100090918B02A0918C02B0918D020196A11D11
:103D2000B11D80938A0290938B02A0938C02B09372
:103D30008D02BF91AF919F918F911F901FBE1F90D9
:103D400018958F938FB78F939F93EF93FF938091E5
:103D500068029091690201969093690280936802CB
:103D6000E0916902E695E695F0E0E051FD4FE491BF
:103D7000FF91EF919F918F918FBF8F911895CDB744
:103D8000DEB7AA970FB6F894DEBF0FBECDBF85B7DA
:103D9000806885BF85B7806885BF84B7877F84BF0B
:103DA0000FB6F894A89580916000886180936000B8
:103DB000109260000FBE80E890E00FB6F8948093F8
:103DC0006100909361000FBE89E894E090935901DF
:103DD000809358010E9485020E9450038091E20066
:103DE00084608093E2007894809180028823A1F01F
:103DF0001091E9001F709091EC00892F817090FD67
:103E000080E8182B1092E9008091E80083FD0E9461
:103E1000FF0C1F701093E90082E084BD93E095BD14
:103E20009AEF97BD80936E000E940F09811102C026
:103E30000E945C080EE311E033E4E32E31E0F32E40
:103E4000D8018D918D018F3F11F00E948B04E016F7
:103E5000F106B1F703E411E0F80181918F018F3F82
:103E600011F00E948B04F1E008341F07A9F785E0E8
:103E7000E6EEF1E0DF01282F1D922A95E9F7E5ED46
:103E8000F1E0DF011D928A95E9F70E94481D81113A
:103E900002C00E94D50B82E090E00E94E72280934E
:103EA000DF010E9428099093DB018093DA010E94D0
:103EB000B31CBFEFE6E7F1E0B150E040F040E1F7BE
:103EC00000C000000E94B31C8091E60180FF08C082
:103ED0006FEF7FEF90E080E00E9419230E94590766
:103EE00083E090E00E94E7220E94EE0C8091910214
:103EF0000E943C0A8091DC01811131C00E94481D62
:103F0000811104C00E94D50B0E94C40B88E090E090
:103F10000E94EF22609363027093640280936502B3
:103F2000909366026E7F71F40E94C40B88E090E06B
:103F30000E94EF2260936302709364028093650293
:103F4000909366020E9473048091630280FF04C014
:103F500060E086950E94970B81E08093DC01809160
:103F600081008860809381008091810081608093CE
:103F700081008FB7F89420ED33E0309389002093CF
:103F800088008FBF20E040E460E88FE70E94490985
:103F900080E091E090936D0280936C0286EE91E058
:103FA00025E0F22EF80E8091800200E112E18530CA
:103FB00009F45EC00E94B31C80EEA82E81E0B82EEA
:103FC00096EE892E91E0992ED401F50191918D9173
:103FD00021E0E53EF20709F456C09817B9F310E066
:103FE000D4010D914D01F50181915F01801721F1FF
:103FF000E82EE026D12CCC24C3948E2D8C21A1F068
:10400000DEA21FA391E0802F8C2109F490E098A7F5
:104010000E940E048160782F9AA789A74EA15FA104
:1040200068A58AA50E942E1CD394CC0CF5E0DF1263
:10403000E4CFF501319700831F5F153089F68FB704
:10404000F89440918A0250918B0260918C02709199
:104050008D028FBF38C080918002992359F00E9451
:10406000B31CE6EEF1E08191811118C2FE12FBCF84
:1040700090917F0280918002853069F30E94F30C59
:104080000E94600497CF9813AACF0E940E048C015F
:104090008091DD019091DE0108171907A1F08FEFE3
:1040A00089A38AA31BA20E940E048160782F9DA37E
:1040B0008CA349A15AA16BA18DA10E942E1C109323
:1040C000DE010093DD010E9460049091E5018917F3
:1040D00069F08093E5018FB7F89440918A0250917E
:1040E0008B0260918C0270918D028FBF8091800253
:1040F000843009F058CF83E08093E9008091E80094
:1041000082FF51CF8091E80090E085FF05C00E94BA
:10411000A402882399F091E08091E8008B77809346
:10412000E800992309F43FCFE981E150E33108F039
:1041300084C0F0E0EC5AFC4D0C94812200E210E0C7
:10414000CE0101966C018091E80085FD0AC0809146
:10415000E8008B778093E8000E94A402882399F3FB
:10416000DACF8091F100D6018D936D0101501109D4
:1041700051F7D1CF1A828AE08B832AC08A8182309C
:1041800009F4A2C18330A9F0813009F056C02FB7DD
:10419000F89460918A0270918B0280918C029091C8
:1041A0008D022FBF0E9487226B837C838D839E8329
:1041B0000FC08091E6018B838091E7018C83809111
:1041C000E8018D838091E9018E838091EA018F83DC
:1041D00080918002843009F0E6CE1091E9001F70D2
:1041E0009091EC00892F817090FD80E8182B82E07F
:1041F0008093E9008091E80080FF0DC050E040E02E
:1042000060E270E0CE0101960E94D5028091E80044
:104210008E778093E8001F701093E900C4CE8A81E6
:10422000823059F46B817C818D819E810E9487222E
:1042300086E290E00E94FB22CBCF8FEF8983C8CF2C
:104240004C816B818A810E946C0898278927982766
:104250009E838D83BDCF2D813E8132272327322738
:104260004C816B818A810E94E507B2CF0E940B08C6
:10427000AFCF8A81813809F1A8F4803809F0A8CF3E
:104280008B81B6E98B9FC00111246FEF70E00E9413
:104290006D22462F20E060916502809164020E94A9
:1042A000490996CF823849F1833809F091CF20E04F
:1042B000409166026C818B81F2CF60E08B810E941D
:1042C000970B9B818091630291110FC08E7F809329
:1042D0006302EFEFF0E722E0E150F0402040E1F729
:1042E00000C000000E947D0773CF8160809363024D
:1042F00060E086950E94970B6BCF8B81809367025D
:1043000067CF8A818138E1F078F4803809F060CF96
:1043100080916602AFEF8A9FC001112466E970E0C8
:104320000E946D226B8354CF823891F0833809F05C
:104330004FCF809164028B83809165028C8348CF3C
:104340008091630280FF02C0869516CF80E014CF73
:104350008091670211CF6091630270916402809135
:104360006502909166020E94360932CF80E18A830D
:104370002FCF83E08A8381E1FFCECA80DB80DC24FB
:10438000CD24DC248E010F5F1F4FAC80A00EB12E18
:10439000B11CC60181519F4F0A151B0509F418CFA6
:1043A000B1E1CB16B3E0DB0650F40E94E722F8013E
:1043B0008483BFEFCB1ADB0A0F5F1F4FEACFD80110
:1043C00014961C92F6CF0A811B8110270127102713
:1043D000FE0131965F01CC80C00ED12ED11CC801E8
:1043E00081519F4F0C151D0509F4F2CE0131F3E008
:1043F0001F0728F4D50114966C910E94FB22BFEF91
:10440000AB1ABB0A0F5F1F4FEACF0E94D507E0CE61
:1044100084E0ADCFCA80DB80DC24CD24DC248E0197
:104420000F5F1F4FAC80A00EB12EB11CC601879646
:104430000A151B0509F4CCCEE8ECCE16D10458F4CD
:104440000E94E722D80114968C93FFEFCF1ADF0A5F
:104450000F5F1F4FEBCFF8011482F7CF0A811B814A
:10446000102701271027CE0101965C01CC80C00ED9
:10447000D12ED11CC8018796C016D10609F4A8CE4A
:10448000083C110528F4D50114966C910E94FB227A
:10449000BFEFAB1ABB0A0F5F1F4FECCF09BD19BDB1
:1044A00009B400FEFDCF8091D8008F7D8093D800A5
:1044B0008091E00082608093E0008091E00081FDC7
:1044C000FCCF0E94F30CD4CD86E290E00E94E7225C
:1044D0001B821C821D828E837BCEAA1BBB1B51E1DB
:1044E00007C0AA1FBB1FA617B70710F0A61BB70B64
:1044F000881F991F5A95A9F780959095BC01CD0109
:104500000895EE0FFF1F0590F491E02D099469279F
:104510009627692778278727782708952F923F9233
:104520004F925F926F927F928F929F92AF92BF92C3
:10453000CF92DF92EF92FF920F931F93CF93DF936F
:10454000CDB7DEB7CA1BDB0B0FB6F894DEBF0FBECC
:10455000CDBF09942A88398848885F846E847D8419
:104560008C849B84AA84B984C884DF80EE80FD801B
:104570000C811B81AA81B981CE0FD11D0FB6F89491
:10458000DEBF0FBECDBFED010895002E083090F0C4
:10459000982F872F762F652F542F432F322F2227C6
:1045A0000850F4CF220F331F441F551F661F771F7B
:1045B000881F991F0A95B2F7002D08952A153B050B
:1045C0004C055D056E057F05800791070895F999F3
:1045D000FECF92BD81BDF89A992780B50895A6E1D6
:1045E000B0E044E050E00C942123A8E1B0E042E0C8
:1045F00050E00C942123262FF999FECF92BD81BD66
:10460000F89A019700B4021639F01FBA20BD0FB610
:10461000F894FA9AF99A0FBE08950396272F0E94EC
:10462000FC220E94FB22252F0E94FC22242F0C94A6
:10463000FC220196272F0E94FC220C94FB22DC0115
:10464000CB01FC01F999FECF06C0F2BDE1BDF89A9D
:10465000319600B40D9241505040B8F70895FB01D7
:10466000DC0104C08D910190801921F4415050402B
:10467000C8F7881B990B0895F894FFCFE00D080E3A
:10468000AB0F080EAB0F3B0E5C0EAB0F5A0F670F54
:10469000211721175A175A17EF17881788178817E5
:1046A0000918741883188318BA20BE200F212021FE
:1046B0002B21362139218121AB211D211D21B6213C
:0E46C000B921BD21E321052208220A222E2263
:1046CE000B042C070A0427072207090401818283A1
:1046DE00E200E900EA00B500B600B700CD008301A4
:1046EE00CC008A01920194012102230224022502A8
:1046FE00260227022A02B300B4006F007000C6F033
:10470E00969236F5673732344022320001DE00AC25
:08471E00000A04230443040017
:00000001FF
