:100000000C942F020C9467020C9467020C94670204
:100010000C9467020C9467020C9467020C946702BC
:100020000C9467020C9467020C94951D0C94511D5E
:100030000C94921E0C9467020C9467020C94670255
:100040000C9467020C9467020C9467020C9467028C
:100050000C9467020C946E1E0C9467020C94670259
:100060000C9467020C9467020C9467020C9467026C
:100070000C9467020C9467020C9467020C9467025C
:100080000C9467020C9467020C9467020C9467024C
:100090000C9467020C9467020C9467020C9467023C
:1000A0000C9467020C9467020C94670205010980A6
:1000B000A101850319012AB700150126B700950192
:1000C00075108100C0050C0901A101850419012AE0
:1000D000A002150126A002950175108100C00660DE
:1000E000FF0961A1010962150026FF00952075082E
:1000F00081020963150026FF00952075089102C052
:1001000005010906A101050719E029E715002501E8
:10011000950875018102950175088101050719008F
:1001200029FF150026FF00950675088100050819AE
:10013000012905950575019102950175039101C08D
:1001400000000000000000000000000000000000AF
:10015000000000000000000000000000000000009F
:10016000000000007E0F00D4FFFFFFC700000078F2
:1001700000000000000000002A2B28000000000002
:100180000000000000000000000000290000000046
:100190002C1E3420212224342627252E362D3738B4
:1001A000271E1F202122232425263333362E3738BD
:1001B0001F0405060708090A0B0C0D0E0F1011127B
:1001C000131415161718191A1B1C1D2F3130232D47
:1001D000350405060708090A0B0C0D0E0F10111245
:1001E000131415161718191A1B1C1D2F3130354CF6
:1001F00000010101010101010101020202020202EA
:1002000002020203030303030303030404040404BC
:100210000404050505050506060606060707070783
:100220000708080808090909090A0A0A0B0B0B0C38
:100230000C0C0D0D0D0E0E0E0F0F0F1010111111D5
:100240001212131314141515161617171818191956
:100250001A1A1B1B1C1D1D1E1E1F202021222223BB
:100260002424252626272829292A2B2C2D2D2E2FFC
:1002700030313232333435363738393A3B3C3D3E13
:100280003F404142434445464748494A4C4D4E4F02
:1002900050515354555658595A5B5D5E5F616264C4
:1002A000656668696B6C6D6F7072737577787A7B51
:1002B0007D7E8082838587888A8C8E8F91939596A8
:1002C000989A9C9EA0A2A3A5A7A9ABADAFB1B3B5C8
:1002D000B7BABCBEC0C2C4C6C9CBCDCFD1D4D6D8A4
:1002E000DBDDDFE2E4E7E9EBEEF0F3F5F8FAFDFF42
:1002F0002A005400550056004C005F006000610069
:100300005700C25C5C005D005E005800E4005900CC
:100310005A005B005200015362006300500051001C
:100320004F004600470048000000010049004A0015
:100330004B00000001004C004D004E000100010088
:1003400000000000000001000100000000000100AA
:100350000100010001000100010001000100010095
:100360000100010001000100010001000100010085
:100370000100010001000100010001000100010075
:100380000100010001000100010001000100010065
:100390000100010001000100010001000100010055
:1003A0000100010001000100010001000100010045
:1003B000010001000100010009025B00030100A02F
:1003C000FA090400000103010100092111010001E3
:1003D000224000070581030800010904010002030F
:1003E00000000009211101000122220007058203FB
:1003F0002000010705030320000109040200010396
:1004000000000009211101000122320007058403C8
:100410002000011201000200000008F1F125000196
:1004200000010200011603570069006E0072007996
:10043000002000320035007400630000001A0353EE
:100440000070006900640065007200490073006C70
:100450000061006E00640000000403090400112420
:100460001FBECFEFDAE0DEBFCDBF04B603FE18C07B
:100470008091940290919502A0919602B09197027A
:100480008730904BA740B04B59F4109294021092D1
:1004900095021092960210929702E0E0F8E3099517
:1004A00011E0A0E0B1E0E0E2F7E402C005900D92B7
:1004B000A835B107D9F722E0A8E5B1E001C01D9247
:1004C000A439B207E1F70E94B91E0C9465230C947D
:1004D0000000E8EDF0E080818E7F80831092E200E2
:1004E0001092DA001092E100A0EEB0E08C918160F1
:1004F0008C9380818F77808319BCA7EDB0E08C91BD
:100500008E7F8C9380818F7E8083109275020895F8
:100510002091E4003091E50095E6A9012091EC00DE
:10052000822F817020FF06C08091E80080FF06C006
:1005300080E008952091E80022FD1AC08091820297
:10054000882389F0853089F08091EB0085FD0FC00C
:100550002091E4003091E50042175307F9F29150E1
:10056000E1F684E0089582E0089583E0089581E053
:100570000895EF92FF920F931F93CF937C018B010D
:100580000E948802C82F811117C08091E80085FD64
:100590000BC08091E8008E778093E8000E9488026B
:1005A000882399F3C82F08C0F70181917F018093B8
:1005B000F1000150110949F78C2FCF911F910F9134
:1005C000FF90EF9008958091840287FF13C080917F
:1005D000E80082FF06C08091E8008B778093E800F6
:1005E00004C0809182028111F2CF0895809182022D
:1005F0008823D9F38091E80080FFF8CF8091E8004C
:100600008E77ECCF982F9093E900242F762F50E02F
:10061000891731F07091EC002091ED005091F000BD
:1006200021FD07C09F5F973071F78093E90081E05B
:1006300008953091EB003E7F3093EB003091ED0058
:100640003D7F3093ED003091EB0031603093EB0053
:100650007093EC002093ED005093F0002091EE0099
:1006600027FDE0CF80E00895B0E0A0E0EAE3F3E00A
:100670000C94C122C8EDD0E088818F7E8883E7ED9D
:10068000F0E080818160808384E082BF81E080939C
:10069000750288818E7F888302EE10E0F801108257
:1006A0001092DA0081EEC82ED12CF60110828881DA
:1006B0008F77888388818068888388818F7D88830D
:1006C00019BC109282021092830210928102109241
:1006D000800290EEE92EF12CF70180818B7F8083E0
:1006E00088818160888342E060E080E00E940203AC
:1006F000F60180818E7F8083F80180818160808314
:10070000808188608083F70180818E7F80838881EB
:1007100080618883CDB7DEB7E8E00C94DD22FC0170
:1007200080918A0290918B0286179707A0F061153D
:10073000710529F49091E8009E779093E80090E08D
:100740006115710551F4911108C08091E80082FF94
:1007500034C080E00895BC01F2CF809182028823EA
:10076000C1F18530C1F18091E80083FD30C08091F6
:10077000E80082FDEACF8091E80080FFE1CF809120
:10078000F3002091F200382F6115710519F028301F
:10079000310558F091E02830310509F090E02091C2
:1007A000E8002E772093E800CBCF81918093F10071
:1007B000615071092F5F3F4FE7CF809182028823FC
:1007C00041F0853041F08091E80083FFBECF81E0A9
:1007D000089582E0089583E0089508950895809132
:1007E000770208952FB7F89480918C0290918D0232
:1007F000A0918E02B0918F022FBF08959C01FC0141
:1008000032969FEF80E04191461751F09F3F19F4D7
:10081000411101C0982F8F5F8630A9F79F3F09F4DF
:100820000895290F311D97FD3A95F90162830895C6
:1008300020916F02309170022817390771F0909360
:10084000700280936F02E0916D02F0916E0230971A
:1008500021F00084F185E02D0995089520916B0227
:1008600030916C022817390771F090936C028093D5
:100870006B02E0916D02F0916E02309721F00680DC
:10088000F781E02D09950895E0916D02F0916E02D7
:10089000309729F00190F081E02D0995089580E0CE
:1008A0000895FA01811101C0FB0109950895809115
:1008B0006602982F9E7F71F480916602817082603B
:1008C0008093660280916902873918F086E98093E7
:1008D00069020895843080F7F5CF80E00895F89498
:1008E000E82FE295EF70F0E031A1282F2F7081E022
:1008F00090E001C0880F2A95EAF7982F90959323EE
:1009000091A392A1892B82A3789408959091DD01FF
:1009100092FF06C0282F28712830F9F4877F846061
:1009200093FF06C0282F28712831F1F4877E846157
:100930002091DE0120FF06C0382F38713830D9F4FD
:10094000877F816021FF06C0282F28712831D1F4CC
:10095000877E816194FD877E0895282F247124303D
:10096000F9F68B7F8860DCCF282F2471243101F7C2
:100970008B7E8861DDCF382F3171313019F78E7F52
:100980008860E0CF282F2171213121F78E7E886188
:10099000E1CFCF93DF93EC0182389105B1F108F0FC
:1009A00040C08133910509F49DC048F58932910515
:1009B00009F48DC08A9709F49CC0C11522E5D207BD
:1009C00008F0BDC0C11531E5D30708F024C1C83E09
:1009D000D10508F0A3C0C13ED10588F5C83AD105BC
:1009E00008F08EC0C53AD10508F0F6C0C130D10577
:1009F00031F1209721F1C430D10508F545C0853388
:100A0000910509F45FC0C997C1F68091DD0183703B
:100A100009F036C18091DE0183FF11C0C9E2D0E048
:100A20000EC0833E910599F170F4803E910501F16D
:100A3000823E910511F68091DD0182FD21C0CE013B
:100A4000DF91CF910895863E910561F1873E910532
:100A500071F1843E910509F0B0CF8091DE0181FFF4
:100A6000EECF8091DD01C7EED0E084FD0DC0E7CF71
:100A70008091DD0180FD33C09091DE0190FFDFCFDA
:100A8000C3EED0E084FFDBCFD0E0C0E0D8CF8091D0
:100A9000DD0182FDF2C09091DE0190FDF1C084FF86
:100AA000CECFF2CF8091DD0183FDDDCFC8CF809125
:100AB000DD0183FDE8C09091DE0191FFF0CFC4EE2F
:100AC000D0E0BDCF8091DD0185FFB9CFA7CF809168
:100AD000DD0185FDDBC08091DE0183FFB0CFC9E37E
:100AE000D0E0ADCF8091DD0186FFA9CFCAE2D0E092
:100AF000A6CF8091DD0186FFA2CFC1E3D0E09FCFDA
:100B0000CF3BD10508F6C85AD0E0CC0FDD1FC05F3F
:100B1000DE4F0990D881C02DD46491CFC11540E536
:100B2000D40708F064C0C11580E4D80708F05CC0A1
:100B3000CE019A9581159F4108F481CFA5CFC115AB
:100B400036E5D30718F5C11545E5D40708F07CC094
:100B5000C11584E5D80708F072C09E0123703327C1
:100B60009C2F96959695C115D34508F459C0C1E0C0
:100B7000D0E002C0CC0FDD1F2A95E2F730E2939F50
:100B8000C0011124C82BD92BDA6859CFC1158AE5C9
:100B9000D80778F4C11529E5D20708F060C0C1155F
:100BA00038E5D30708F470CFDC2FCC27C06FD06AAC
:100BB00046CFCE0190568115904208F065CF8D2F1B
:100BC0008F710E94860490E0982F882788279F7154
:100BD0009C012C2BE90141C0C55AD0E0C35FDE4F18
:100BE000C881D0E0D0642BCFDF70D06A28CFCE018F
:100BF0008370992721E030E002C0220F331F8A95CD
:100C0000E2F7C695C69580E2C89FE0011124C22B89
:100C1000D32BDD6814CFDC2FCC27C16FD06A0FCF68
:100C2000C1E0D0E002C0CC0FDD1F2A95E2F720E240
:100C3000929FC0011124C82BD92BDC6800CFDC2F78
:100C4000CC27C46FD06AFBCE8C2F0E948604C82F9D
:100C5000D0E0DC2FCC27CC27DF71D062F0CE8C2FF8
:100C60008F700E94860434E0D695C7953A95E1F7D7
:100C7000CF709C2FEC01D069E2CEC2EED0E0DFCE87
:100C8000C0EED0E0DCCEC6EED0E0D9CEC5E3D0E0F9
:100C9000D6CE8091D30181111092D3010895809511
:100CA0009091D20198239093D20108958091C70129
:100CB00090919601981301C008958F5F8770FACFC5
:100CC000292F953078F5853068F590E035E0239F41
:100CD000800D911D1124682F677023E096958795EC
:100CE0002A95E1F7FC01EE0FFF1FE80FF91FEC5703
:100CF000FE4F50E040E080E0219130E0062E02C03F
:100D0000369527950A94E2F721703327042E01C007
:100D1000220F0A94EAF7822B4F5F5F4F4330510551
:100D200059F7089580E00895292F953098F585307A
:100D300088F590E035E0239F800D911D1124282F28
:100D4000277041E001C0440F2A95EAF723E0969509
:100D500087952A95E1F7FC01EE0FFF1FE80FF91FB9
:100D6000EC57FE4F30E020E070E05191DF01119729
:100D7000CB01022E02C0969587950A94E2F7817006
:100D800081958527842385278C932F5F3F4F2330C0
:100D9000310559F70895982F92959F7011F0892F7A
:100DA00094E0282F2695269511F09E5F822F869538
:100DB00009F09F5F892F08958093720270937402E7
:100DC00060937302809182028430F9F48093E90089
:100DD0008FEF9091E800815095FD06C095ED9A95B2
:100DE000F1F700008111F5CF8091E80085FF0DC07B
:100DF00050E040E063E070E082E792E00E94B902D8
:100E00008091E8008E778093E8000895BC0184E02B
:100E10000E94DC060895BC0183E00E94DC06089570
:100E2000CF93DF93EC0181E08093E9008FEF909105
:100E3000E800815095FD06C095ED9A95F1F7000008
:100E40008111F5CF8091E80085FF14C050E040E0AB
:100E500068E070E0CE010E94B9028091E8008E77D0
:100E60008093E80088E0FE01A8E7B2E001900D92CF
:100E70008A95E1F7DF91CF91089581E08093E000BA
:100E800080E28093D8001092C9008FE19EE4019720
:100E9000F1F700C0000087E090EBDC018093940242
:100EA00090939502A0939602B093970288E19CE0FC
:100EB0000FB6F894A895809360000FBE90936000E1
:100EC000FFCF8091660280FD0AC0EEEEF1E0118254
:100ED00010821282339652E0E636F507C1F7559A32
:100EE0003BB13F7D2BB120624FB7F8948EEE91E07D
:100EF000FC015191CF0168E02BB9000000C057FF01
:100F00003BB9550F000000C000C000C03BB900C095
:100F10006A9591F7F2E086369F0751F74FBF8FE54C
:100F200094E00197F1F700C00000089590916602E7
:100F300090FF0DC030E0F901EE0FFF1FE20FF31F2D
:100F4000E251FE4F8183608342830E9461070895CE
:100F50009091660290FF0CC0EEEEF1E08183608319
:100F60004283339692E0E636F907C1F70E946107A3
:100F70000895CF93DF93CFEED0E060E0CE010E94E2
:100F800024232196C11584E0D807B9F7DF91CF91CA
:100F900008951F93CF93DF93122F8430E0F46530D0
:100FA000D0F44530C0F4C42FD0E0CC0FDD1F9AE060
:100FB000699FC00DD11D112492E3899FC00DD11DE1
:100FC0001124632FCE0187960E942423612FCE0126
:100FD00088960E942423DF91CF911F910895AF92AC
:100FE000BF92CF92DF92EF92FF921F93CF93DF9346
:100FF00080EFC82E82E0D82ED0E07601C0E014C089
:10100000F50125913491412F6C2F8D2F0E94C90736
:1010100082E0A80EB11C1F5F153091F78AE0E80E40
:10102000F11CCF5FC53019F0570110E0E9CFDF5F49
:1010300082E3C80ED11CD43001F7DF91CF911F910C
:10104000FF90EF90DF90CF90BF90AF900895CF9337
:10105000C82F6FEF811162E283E290E00E942423A7
:10106000C1110DC0CFEF6C2F84E290E00E942423C9
:101070006C2F85E290E00E942423CF910895C1E176
:10108000F2CF80E00E94270860E086E290E00E94B4
:1010900024230E94EF070E94B90781E00E942708DD
:1010A00008950F931F93CF93DF93843030F565300D
:1010B00020F5453010F5C42FD0E0CC0FDD1F2AE01D
:1010C000629FC00DD11D112432E3839FC00DD11D3D
:1010D0001124CE0187960E941023082F10E0102FB4
:1010E0000027CE0188960E9410239801282BC90161
:1010F000DF91CF911F910F91089590E080E0F8CF9C
:10110000462F843040F4753030F4653020F4672F7A
:101110000E945108089590E080E00895CF92DF92F8
:10112000FF920F931F93CF93DF936C010091930273
:101130008091D401082BC7E0D0E010E0FC2EC8015C
:101140000C2E02C0959587950A94E2F780FD0CC09D
:101150002197A0F7F12C8F2DDF91CF911F910F9147
:10116000FF90DF90CF900895B6018C2F0E948008E9
:101170000E94C904019761F3EECFCF93DF93EC0196
:101180000E948E08BE010E9480080E94C904DF915F
:10119000CF910895FC0183819481892B29F080816E
:1011A000918189238F3F51F480E00895843FE1F7D6
:1011B00017C0883EA8F0813FB9F712C080819181A5
:1011C0000E94BD0892959F70963099F358F4925FF3
:1011D0009F70923048F7803F19F040F7883E20F723
:1011E00081E008959A5FF4CF83E290E00E9410239B
:1011F000823289F484E290E00E941023813159F414
:1012000085E290E00E94102391E0813109F090E0A6
:10121000892F8170089580E0FCCFCF9384E090E027
:101220000E941023C82F82E290E00E941023982F82
:101230008C2FCF910895CF92DF92EF92FF926B01A6
:101240007C010E945704B701A60188E090E00E944B
:101250003623FF90EF90DF90CF900895B0E0A0E0AC
:10126000E4E3F9E00C94BD22F82EC62FD42FE22E31
:101270008091660280FF24C08E7F823079F4E42F53
:10128000473908F0E6E9F0E0E051FE4FC1111DC01A
:101290006491462FE62F8E2F0E94A807F0926702D6
:1012A000C0936802D0936902EE2051F0609166020B
:1012B0007091670280916802909169020E941B09F7
:1012C000CDB7DEB7ECE00C94D922CC2ED12CE49132
:1012D000FE2FAE2EB12C06E0F09EC00111242FEFA0
:1012E00030E0B9010E949622CB014F2D50E0440F0F
:1012F000551FA5E5A89FB001A99F700D1124461B9D
:10130000570B942E990C940EA9014C195D094A9D16
:10131000D0014B9DB00D5A9DB00D11244B2FC99D8E
:10132000B0011124672F77278901061B170BB8011D
:101330006A9D80016B9D100D7A9D100D1124B901DD
:10134000691971094B018C9CB0018D9C700D9C9C9E
:10135000700D1124672F7727261B370B2A9D6001FC
:101360002B9DD00C3A9DD00C11246D2D823091050F
:1013700089F040F4009709F48ECF019779F06B2F34
:10138000412F89CF8430910561F078F0069709F4F8
:1013900082CFF5CF6E2FEB2F4D2D7DCF6E2FE12F0E
:1013A0007ACF6B2F4E2FED2D76CFEB2F4F2F612F56
:1013B00072CFE6E6F2E0438128E0421B08F440E009
:1013C00021E0628181810E942E090895E6E6F2E023
:1013D000438128E0420F08F44FEF21E062818181D0
:1013E0000E942E090895E6E6F2E0628128E0621B81
:1013F00008F460E021E0438181810E942E09089574
:10140000E6E6F2E0628128E0620F08F46FEF21E087
:10141000438181810E942E090895E6E6F2E08181F0
:1014200021E04381628188500E942E090895E6E6FA
:10143000F2E0818121E043816281885F0E942E0970
:101440000895CF93C82F0E94CB06882349F081309E
:1014500009F4A5C048E26BE78AE00E94A8079CC097
:1014600020E04FEF6FEF8FEB0E942E0924E148E25E
:101470006BE78AE00E94960725E148E26BE78AE085
:101480000E94960726E148E26BE78AE00E949607F1
:1014900027E148E26BE78AE00E94960728E148E2EC
:1014A0006BE78AE00E94960723E148E26BE78AE057
:1014B0000E94960726E048E26BE78AE00E949607C2
:1014C00027E048E26BE78AE00E94960728E048E2BE
:1014D0006BE78AE00E94960729E048E26BE78AE022
:1014E0000E94960722E148E26BE78AE00E94960795
:1014F00025E048E26BE78AE00E94960720E048E298
:101500006BE78AE00E94960721E048E26BE78AE0F9
:101510000E9496072AE048E26BE78AE00E9496075D
:1015200021E148E26BE78AE00E94960724E048E266
:101530006BE78AE00E94960723E048E26BE78AE0C7
:101540000E94960722E040E065EA8FEF0E9496072E
:101550002BE048E26BE78AE00E94960720E148E230
:101560006BE78AE00E9496072FE048E26BE78AE08B
:101570000E9496072EE040E065EA8FEF0E949607F2
:101580002DE040E065EA8FEF0E9496072CE040E0F6
:1015900065EA8FEF0E9496078C2FCF91089520E087
:1015A0004FEF6FEF8FEB0E942E0924E140E860E0DF
:1015B00080E80E94960725E140E860E080E80E940C
:1015C000960726E140E860E080E80E94960727E160
:1015D00048E26BE78AE00E94960728E140E860E075
:1015E00080E80E94960723E140E860E080E80E94DE
:1015F000960726E040E860E080E80E94960727E032
:1016000040E860E080E80E94960728E048E26BE747
:101610008AE00E94960729E040E860E080E80E94A6
:10162000960722E140E860E080E80E94960725E006
:1016300040E860E080E80E94960720E040E860E033
:1016400080E80E94960721E040E860E080E80E9480
:1016500096072AE040E860E080E80E94960721E1D2
:1016600048E26BE78AE00E94960724E048E26BE7D5
:101670008AE00E94960723E048E26BE78AE00E9436
:10168000960722E040E065EA8FEF0E9496072BE084
:1016900040E860E080E860CF80916A02882319F01A
:1016A000815080936A026091660270916702809116
:1016B0006802909169020E941B09089580916A0254
:1016C000833018F48F5F80936A0260916602709194
:1016D000670280916802909169020E941B09089537
:1016E0008091660280FF19C08170826080936602DB
:1016F000662351F0609166027091670280916802E2
:10170000909169020E941B0920E04091690260915A
:101710006802809167020E942E09089580916602F6
:101720008695815009F481E061E00E94700B089574
:1017300061E081E00E94700B0895E6E6F2E083E04C
:10174000808311828FEF828386E983831482608194
:101750007181828193810E941B09089568EE7EEF5A
:1017600090E080E00E94422360E082E090E00E94EE
:10177000242360E083E090E00E9424231092D401AF
:1017800060E084E090E00E94242364E082E290E044
:101790000E94242360E085E090E00E94242360E022
:1017A00086E090E00E9424236FEF87E090E00E94A3
:1017B000242340E050E0BA0188E090E00E94362304
:1017C00060E08DE090E00E94242340E050E0BA0108
:1017D00088E190E00E94362360E087E190E00E947B
:1017E000242340E050E0BA018CE190E00E943623CF
:1017F00070E060E080E290E00E94422340E050E030
:10180000BA0188E190E00E94362380E00E94270818
:101810000E94410840E050E0BA018FE090E00E9451
:10182000362340E050E0BA0183E190E00E94362385
:1018300008958091D2019091D101892B80935A0112
:101840009091D301992391F0892B80935A0120E044
:101850008CE591E0FC013191CF0131112F5FF1E076
:1018600082369F07B9F721110E94490648E050E0EF
:1018700069EC71E08AE591E00E945823892BA9F078
:1018800088E0EAE5F1E0A9ECB1E001900D928A95DB
:10189000E1F7E0916D02F0916E02309731F0028035
:1018A000F381E02D8AE591E00995089590E080E0CC
:1018B0000E942E0490E080E00E9418041092D10152
:1018C0000E94190C08950E94210A809393020E949D
:1018D000560C089580919302982F9670963021F4BB
:1018E00088600E94630C0895877FFBCF21E030E081
:1018F00001C0220F8A95EAF72095809193028223F6
:101900000E94630C08959091C8018095892380936B
:10191000C801282F277091F4282F082E000C330BB4
:101920009217130659F09091DE0192FF07C085953A
:10193000859585950E94760C1092C8010895CF93E5
:10194000C091DE01C2FB992790F9981791F080FBB6
:10195000C2F9C093DE016091DD0184E090E00E9455
:1019600024236C2F82E290E00E94242382E00E94D4
:10197000830CCF91089521E030E001C0220F8A95B9
:10198000EAF780919302822B0E94630C0895809362
:10199000D4010E94560C08951092D201ECE5F1E0BA
:1019A00086E0DF011D928A95E9F70E94560C0895A2
:1019B000AAE2B0E0EEEDFCE00C94C62284E892E0EE
:1019C0002091F100DC012D93CD01B2E08C389B0712
:1019D000B9F780918502833009F472C0B8F4813080
:1019E00009F449C0823009F4B3C08091E80083FF54
:1019F0008BC280918402909185029A3008F084C253
:101A0000E92FF0E0E959FC4D0C94AA228A3009F440
:101A10008EC08B3009F471C0893039F7809184020F
:101A2000813219F78091880290918902009711F014
:101A30000297D9F68091E800877F8093E800809133
:101A4000E80082FF38C09091F3008091F200029785
:101A500031F48091F100813011F0863021F48091D1
:101A6000F100809377028091E8008B778093E80003
:101A70000E94E302BACF80918402813A09F0B5CF87
:101A80008091E800877F8093E800809188029091A0
:101A90008902892B61F468E088E792E070E00E9497
:101AA0008F038091E8008B778093E8009ECF60E001
:101AB00090E080E0F3CF809182028111C0CF95CF7A
:101AC00080918402813A09F090CF809188029091B0
:101AD0008902892B09F089CF8091E800877F809364
:101AE000E8008091E80080FFFCCF80910C0180939A
:101AF000F1008091E8008E77B9CF80918402813225
:101B000009F073CF8091880290918902892B09F0A6
:101B10006CCF8091E800877F8093E8000E94E30209
:101B20008091860280930C010E94CC0C5ECF809144
:101B30008402813209F059CF8091E800877F809339
:101B4000E8000E94E30280918702809376024DCFE5
:101B500080918402813A09F048CF8091E800877F24
:101B60008093E8008091E80080FFFCCF80917602AE
:101B7000BECF803899F0823809F0C6C180918802C2
:101B80008F70873008F0C0C18093E9008091EB002E
:101B900085FB882780F91092E90006C080918002B9
:101BA00090918102911182609091E800977F9093CB
:101BB000E8008093F1001092F1008091E8008E77A8
:101BC0009FC1882309F48DC1823009F09DC18091A5
:101BD0008602811190C1809188028F702FEF280FAB
:101BE000263008F091C18093E9002091EB0020FF9E
:101BF00082C1933031F48091EB0080628093EB00DE
:101C00007AC19091EB0090619093EB0021E030E07D
:101C100001C0220F8A95EAF72093EA001092EA00A9
:101C20008091EB008860EACF81116EC1109186022D
:101C30001F778091E3008078812B8093E30080916F
:101C4000E800877F8093E8000E94E3028091E8002B
:101C500080FFFCCF8091E30080688093E30082E006
:101C6000111183E0809382024FC18058823008F0C6
:101C70004BC120918602309187022C3DE3E03E0764
:101C8000A1F583E08A838AE289834FB7F894DE0165
:101C9000139620E03EE051E2E32FF0E0509357002E
:101CA000E49120FF03C0E295EF703F5FEF708E2F4D
:101CB00090E0EA30C0F0C7968D939D932F5F24315A
:101CC00059F74FBF8091E800877F8093E8006AE270
:101CD00070E0CE0101960E948F038091E8008B771F
:101CE0008093E80011C1C096E7CF8091880290915F
:101CF0008902432F55274330510509F44AC078F52E
:101D00004130510509F47AC08BE590E0E8EBF3E04F
:101D10004230510509F0F8C02091E800277F209358
:101D2000E80020918A0230918B028217930708F411
:101D30009C0140E02115310509F065C0411163C0E7
:101D40008091E80082FDC9CF80918202882329F228
:101D5000853019F28091E80083FFF2CFBECF413287
:101D6000510509F43CC04232510509F0CDC0833021
:101D7000910508F0C9C0FC01EE0FFF1FE55BFE4FA7
:101D80000190F081E02D885B9E4FDC018C9190E00A
:101D90001AC0332721303105D1F02115310561F00A
:101DA0002230310509F0B0C0E5E2F4E0E4918E2F75
:101DB00090E0E5E2F4E007C0E9E5F4E0E4918E2F7D
:101DC00090E0E9E5F4E0009709F49EC0A5CFEDE3CB
:101DD000F4E0E4918E2F90E0EDE3F4E0F4CF833073
:101DE000910508F091C0880F991FFC01EF5AFE4F32
:101DF0000190F081E02D89E090E08ECF82E190E0CB
:101E0000E3E1F4E089CF80918202882309F465CF71
:101E1000853009F462CF8091E80083FD5ECF809128
:101E2000E80082FD8DCF8091E80080FF83CF909104
:101E3000F3008091F2002115310519F088309105E9
:101E400050F041E0089709F040E08091E8008E777B
:101E50008093E8006FCF44914093F1003196215078
:101E600031090196E8CF803809F04EC08091E80032
:101E7000877F8093E800809183028093F1009DCE5C
:101E8000811142C0109186021230F0F58091E80075
:101E9000877F8093E800109383020E94E30211235E
:101EA00011F084E005C08091E30087FDFACF81E066
:101EB0008093820242E061EC81E00E94020342E2F0
:101EC00061EC84E00E94020342E261EC82E00E9445
:101ED000020342E260EC83E00E94020380918202EE
:101EE00013C080918602813079F481E0933009F04B
:101EF00080E0809381021092E9008091E800877F62
:101F00008093E8000E94E3028091E80083FF0AC00A
:101F10008091E800877F8093E8008091EB008062E9
:101F20008093EB00AA96E3E00C94E2220E94CC0C92
:101F30002FEF84E39CE0215080409040E1F700C007
:101F4000000088E19CE00FB6F894A89580936000AB
:101F50000FBE90936000FFCF882321F00E944F06B0
:101F60000E94190C0895882339F09091D201982B82
:101F70009093D2010E94190C0895882391F19CEF4F
:101F8000980F913A80F4ECE5F1E022E631E091918E
:101F9000891303C0DF0111971C922E173F07B9F771
:101FA0000E94190C089590E2980F983050F48770B1
:101FB00091E001C0990F8A95EAF7892F0E944F0698
:101FC000EFCF9BE5980F933028F490E080E00E94DB
:101FD0002E040895885A873120F490E080E00E9412
:101FE00018040895CF93C82F8823B1F08CEF8C0F7D
:101FF000813A00F5ECE5F1E082E691E0DF012D9118
:10200000C21761F08A179B07D1F76C2F8AE591E020
:102010000E94FE030E94190CCF9108952191C213D2
:1020200003C0DF0111971C928E179F07B9F70E941A
:10203000190CEBCF80E28C0F883068F4C77021E078
:1020400030E001C0220FCA95EAF78091D201822BBD
:102050008093D201DFCFEBE5EC0FE33040F4F0E00A
:10206000E35FFE4F808190E00E942E04D5CFC85AD6
:10207000C73190F6EC2FF0E0EE0FFF1FE05FFE4F50
:10208000808191810E941804C7CF1F93CF93DF9363
:10209000182FD0E0C0E0893311F4C0E5D0E0812FE3
:1020A0000E94F20F209739F4812F0E94BD0FDF911B
:1020B000CF911F9108958FE99FE00197F1F700C03C
:1020C00000002197EFCF0F931F93CF93DF93C62F7D
:1020D000D42F022FFC0182818823A9F06093920201
:1020E0000E94F2039093910280939002C77081E066
:1020F00001C0880FCA95EAF70E94B30FDF91CF9114
:102100001F910F9108958091920268133DC0209114
:102110009002309191024FB7F89480918C02909187
:102120008D02A0918E02B0918F024FBF821B930B44
:10213000883C910548F510E21D0F6D17B9F080E25B
:10214000860F883040F4C77081E001C0880FCA95BF
:10215000EAF70E94AC0F183048F481E09D2F977089
:1021600001C0880F9A95EAF70E94B30F802F0E9452
:102170004510183018F6D77081E001C0880FDA9545
:10218000EAF70E94AC0FBACFC77081E001C0880F98
:10219000CA95EAF7F6CFA7E0B0E0E1EDF0E10C94E4
:1021A000B7223C01DC0113968D919C911497892BE9
:1021B00041F08C9111969C9189238F3F11F00C94E2
:1021C00005192796E2E10C94D3220E948E08182F5D
:1021D000682F89819A810E94940669817A81812F72
:1021E0000E948008FC01815095454F018F3F910569
:1021F00010F4B5E59B26D30112968C91882309F43F
:10220000CDC2BFEF8B16910409F100F12AE28216CC
:102210002DE5920621F0109282014F0160C080915D
:10222000820191E08927809382018091C8018770A3
:1022300041F2D30112968C91882319F28091DE012C
:1022400082FFBFCF82E00E94830CBBCF80918201CE
:10225000882309F438C11092820130EC831691046E
:1022600008F089C080E88816910408F0F6C090E470
:102270008916910408F0BBC021E030E040E050E056
:1022800060E070E080E090E0082D0E94EE22E09196
:1022900062012E2BE09163013E2BE09164014E2BF5
:1022A000E09165015E2BE09166016E2BE091670184
:1022B0007E2BE09168018E2BE09169019E2B20938B
:1022C0006201309363014093640150936501609310
:1022D0006601709367018093680190936901C4015E
:1022E00082519F45409708F062C78FEF93E00E94AC
:1022F000102381119ACF0EEE080D5FEEA52EB12CA2
:102300000111D6C21C821B82442443944AE0342E1D
:1023100085010F5F1F4FC5010E94102389831A8218
:10232000882309F482CF9FEF980F933008F0CFC233
:102330008A834982E2E0AE0EB11CC8010E941023DC
:102340008B83882309F471CF8E010F5F1F4FD80153
:102350002C912223E9F2213009F0F3C211969C91CD
:10236000119712968C91913009F0B3C20E5F1F4FF6
:102370000E944510B4C2AFEF8A16910411F008F024
:102380007BCF21E030E040E050E060E070E080E0B2
:1023900090E08401005C11090E94EE22E0917A0134
:1023A0002E2BE0917B013E2BE0917C014E2BE091A6
:1023B0007D015E2BE0917E016E2BE0917F017E2BF3
:1023C000E09180018E2BE09181019E2B20937A0178
:1023D00030937B0140937C0150937D0160937E019B
:1023E00070937F01809380019093810178CF21E0E9
:1023F00030E040E050E060E070E080E090E0840198
:10240000005411090E94EE22E0916A012E2BE09106
:102410006B013E2BE0916C014E2BE0916D015E2B28
:10242000E0916E016E2BE0916F017E2BE0917001C7
:102430008E2BE09171019E2B20936A0130936B01EA
:1024400040936C0150936D0160936E0170936F0126
:10245000809370019093710142CF21E030E040E021
:1024600050E060E070E080E090E0840100581109E5
:102470000E94EE22E09172012E2BE09173013E2B1F
:10248000E09174014E2BE09175015E2BE091760195
:102490006E2BE09177017E2BE09178018E2BE091FD
:1024A00079019E2B20937201309373014093740144
:1024B0005093750160937601709377018093780152
:1024C000909379010CCFB0E48B16910408F06EC0A4
:1024D000A0916201B0916301509064014090650148
:1024E0003090660120906701209168012E83309121
:1024F00069013F8321E030E040E050E060E070E0BF
:1025000080E090E0082D0E94EE22A22EAA22B32E97
:10251000BB22C42EC520D52ED420E62EE320F72ED4
:10252000F2200E8108231F8119230E94072309F03E
:1025300074CE80EC8816910408F09AC090E8891651
:10254000910408F0FBC0E0E48E16910408F0C6C0C8
:1025500021E030E040E050E060E070E080E090E0BA
:10256000082D0E94EE22209530954095509560955B
:102570007095809590952A233B2345215421632112
:102580007221AE818A23BF819B2320936201309305
:1025900063014093640150936501609366017093F9
:1025A000670180936801909369013FCE80E88816A7
:1025B0009104F0F4A0916A01B0916B0150906C010C
:1025C00040906D0130906E0120906F0190917001EC
:1025D0009E83209171012F8321E030E040E050E0A4
:1025E00060E070E080E090E08401005411098BCF3E
:1025F00030EC83169104F0F4A0917201B091730154
:1026000050907401409075013090760120907701D0
:10261000809178018E83909179019F8321E030E051
:1026200040E050E060E070E080E090E0840100581D
:10263000110969CFA0917A01B0917B0150907C0182
:1026400040907D0130907E0120907F01209180019B
:102650002E83309181013F8321E030E040E050E063
:1026600060E070E080E090E08401005C11094BCFF5
:10267000FFEF8F16910411F008F06ACF8401005C1F
:10268000110921E030E040E050E060E070E080E0DF
:1026900090E00E94EE2220953095409550956095EF
:1026A0007095809590952A233B23452154216321E1
:1026B0007221EE818E23FF819F2320937A01309334
:1026C0007B0140937C0150937D0160937E01709368
:1026D0007F018093800190938101A7CD84010054F4
:1026E000110921E030E040E050E060E070E080E07F
:1026F00090E00E94EE22209530954095509560958F
:102700007095809590952A233B2345215421632180
:102710007221EE818E23FF819F2320936A013093E3
:102720006B0140936C0150936D0160936E01709347
:102730006F01809370019093710177CD84010058EF
:10274000110921E030E040E050E060E070E080E01E
:1027500090E00E94EE22209530954095509560952E
:102760007095809590952A233B2345215421632120
:102770007221AE818A23BF819B2320937201309303
:1027800073014093740150937501609376017093C7
:102790007701809378019093790147CD2FEF8216CE
:1027A000910409F068F530E483169104A8F5A0902F
:1027B0006201B0906301C0906401D0906501E09027
:1027C0006601F0906701A0916801B091690121E074
:1027D00030E040E050E060E070E080E090E0082D04
:1027E0000E94EE22A222B322C422D522E622F722A0
:1027F000082F0A23192F1B230E94072309F415CD44
:10280000E031BFE5FB0709F4F5C0E1312FE5F20740
:1028100009F00CC682E0EFC080E888169104E0F46D
:10282000A0906A01B0906B01C0906C01D0906D01D6
:10283000E0906E01F0906F01A0917001B091710174
:1028400084010054110921E030E040E050E060E0F4
:1028500070E080E090E0C4CF90EC89169104A0F481
:10286000A0907201B0907301C0907401D090750176
:10287000E0907601F0907701A0917801B091790114
:10288000840100581109DFCFA0907A01B0907B013C
:10289000C0907C01D0907D01E0907E01F0907F019E
:1028A000A0918001B09181018401005C1109CBCF1E
:1028B000A114A4E0BA0609F4B8CCC5010E94102303
:1028C000811101C00150BFEFAB1ABB0A19CD5801ED
:1028D0003BCD923039F40E5F1F4F0E94F20F0F5F15
:1028E0001F4F35CD933029F40E5F1F4F0E94BD0F4F
:1028F000F6CF943019F00F5F1F4FF1CF0E5F1F4FCF
:1029000030E020E0B8016F5F7F4FF80141818053D4
:10291000990B8A30910550F02150310900F38FE96D
:102920009FE00197F1F700C00000F6CF329EF00162
:10293000339EF00D11249C012E0F3F1F842F8B011D
:10294000E1CFE22FF0E0E059FE4F5490822F8695C0
:102950008695869590E0FC01E05AFE4F84902770A2
:10296000912C022E02C0959487940A94E2F7A1E07C
:102970008A229924FC01E05BFE4FC490D12C022EE8
:1029800002C0D594C7940A94E2F7B1E0CB22DD24CB
:10299000FC01E05CFE4FE490F12C02C0F594E7945A
:1029A0002A95E2F7E1E0EE22FF248114910419F068
:1029B00081EE0E94F20FC114D10419F086EE0E943C
:1029C000F20F852D0E944510C114D10419F086EE36
:1029D0000E94BD0F8114910419F081EE0E94BD0F79
:1029E000E114F10409F47BCF8CE2C2CC81E00E94B7
:1029F000BB0C03C081E00E94760C0E946A0C15CCCF
:102A000082E0F5CF27E245EE65EEFAC326E241EE1D
:102A100060EEF6C327E245EE64EEF2C326E241EE35
:102A200062EEEEC328E241E0EFCF35EA83163DE5E2
:102A3000930609F4BBC4F0F491E689169DE5990666
:102A400009F4B4C4A6E18A16ACE59A0609F0F2C30B
:102A50008091D2018A7A91E009F490E09093830109
:102A600069E2811165E38AE591E00E94FE030E941C
:102A7000190CDBCBC4018D5A9D45039718F796C4FA
:102A80008091DD018062B7E08B16BCE59B06C1F149
:102A90008091DD018061E8E08E16ECE59E0680F114
:102AA0008091DD0180642CC0FDE08F16FCE59F065F
:102AB00009F4D1C070F48091DD018E7F3BE0831674
:102AC0003CE59306E9F008F4BEC08091DD018D7FFE
:102AD00017C09FE089169CE5990609F4CCC008F45C
:102AE000BEC0B0E18B16BCE59B0609F4C8C080915E
:102AF000DD018F7BE1E18E16ECE59E0609F085C4D1
:102B00008093DD0182C4FFEF8F16FCE59F0609F478
:102B1000C4C0D8F53AEF83163CE5930609F485C0A6
:102B2000D0F494E189169CE5990609F4C4C008F430
:102B3000B0C0B5E18B16BCE59B0609F066C4809178
:102B4000DD0182FB992790F921E0922790FB82F921
:102B500090FB83F9D5CFECEF8E16ECE59E0609F4D9
:102B600082C008F466C02DEF82162CE5920609F4A7
:102B70007EC08091DE0183603EEF83163CE59306C4
:102B800009F043C48093DE0140C481E688168DE5D8
:102B9000980609F49BC0A0F4A1E08A16ADE59A0658
:102BA00009F492C008F47DC060E0E2E08E16EDE525
:102BB0009E0609F02AC48EE090E00E94242325C4DA
:102BC000FDEA8F16FDE59F0601F168F49091DD01A5
:102BD000892F8E7F90FF816035EA83163DE593064D
:102BE00009F48ECF12C48EEA88168DE5980679F125
:102BF0009FEA89169DE5990609F007C49091DE01C8
:102C0000892F877F93FF8860BDCF8091DE01886028
:102C1000B9CF8091DD01826073CF8091DD01846046
:102C20006FCF8091DD0188606BCF8091DE01816084
:102C3000A9CF8091DE018260A5CF0E94CC0C80914B
:102C4000DD0180685DCF8091DD018C6059CF80917E
:102C5000DE01877F97CF8091DD018B7F51CF8091FF
:102C6000DD01877F4DCF8091DE018E7F8BCF8091FC
:102C7000DE018D7F87CF8091DD018F7E41CF8091F6
:102C8000DD018F7D3DCF0E94CC0C8091DD018F77DF
:102C900037CF8091DD01837F33CF8091DE018C7F40
:102CA00071CF8091DE01982F909591708E7F892B46
:102CB00090FB81F967CF0E94CC0C9091DD01892FA8
:102CC00097FB87F980581CCF61E075CF9091DD01AB
:102CD000892F8F7E94FF806113CF85E3C6C3816007
:102CE0008093660261E086950E94700B9ECA4EE852
:102CF0005BE068E97BE00E94510497CA48E95BE029
:102D00006EE87BE0F8CF4DE05AE067E17AE0F3CF80
:102D100049ED59E066EE79E0EECF61E081E0E4CF85
:102D20000E94CC0C3FEF84E39CE031508040904007
:102D3000E1F700C000000E943D078091DE0182FBA8
:102D4000882780F991E089270E949F0CF3018281F6
:102D500000811181882309F448C0C8010E948E08AF
:102D6000F82E682FC8010E949406B8018F2D0E948A
:102D700080080E94C9048C01A82ED3011296FC90F1
:102D800012971596DC90D2943FE0D3228091C8012F
:102D90008770C1F0CF2CFF20B1F0812F807F80346D
:102DA00021F080E2800F883068F08091DE0182FFA0
:102DB00009C082E00E94830C8091C8018770CC24F6
:102DC000C3948111C12CB12EB2942FE0B222BBE08A
:102DD000BB1508F476C0EB2DF0E0EF58FC4D0C94D9
:102DE000AA2281E0B1CF80E0AFCFC8010E94600687
:102DF000F82EBBCFE12FEF70EE2E107F19F0E2948A
:102E000090EFE922FF20B9F0EE2069F080E2800F18
:102E1000883010F0A11009C08091D201E82AE09218
:102E2000D2010E94190C802F4AC08091D101E82A5A
:102E3000E092D101F6CF802F0E94BD0FEE2009F461
:102E400040C0005E083010F0A11004C08E2D0E941A
:102E50004F0606C0E0948091D101E822E092D101B2
:102E60000E94190C2EC0F12FFF70EF2E107F103230
:102E700019F0E29480EFE822AA2089F021E0A2165E
:102E800009F467C0FF2009F471C0DD2009F467C0B0
:102E9000F301858180FFC7CF8F70858360C020914B
:102EA000DE0122FD34C0FF2061F1EE2039F0809177
:102EB000D201E82AE092D2010E94190C80E00E941F
:102EC000F20FAB2DA850BB0B149710F40E944404D2
:102ED000CC2009F476C98091C80180FD72C9F30144
:102EE00012828595859585950E94BB0CC3010E9431
:102EF000CB108091C8018595859585950E94760CAB
:102F000060C980E00E94BD0FEE20D9F29FCFFF2064
:102F100099F09091D3018E2D892BD11003C00E947E
:102F2000B30FCFCF31E0D312FACF22FFCACF891728
:102F300041F28093D301C5CFD11006C00E9449064B
:102F40008E2D0E94AC0FBDCF81E0D81609F4B9CF09
:102F5000F5CFFF2031F095E09D1508F4B2CF8E2D0E
:102F6000DECFA4E0AD1508F4ACCFEACFDD2041F30D
:102F7000F9E3AF1209C02FEF37EE83E02150304064
:102F80008040E1F700C00000802F0E94BD0F99CF64
:102F9000812F86958695837061F0813009F091CFFD
:102FA000C8019370F11002C090E080E00E94180404
:102FB00088CFC8019370F11002C090E080E00E94B9
:102FC0002E047FCF812F837089F5F1107ACF402FA7
:102FD000429546954770440F440F802F8F70042E02
:102FE00001C0880F0A94EAF7202F207104FF07C060
:102FF0002FE030E001C0220F4A95EAF720951695A0
:1030000016951370123069F050F43091D4011130DC
:1030100029F0822B83230E94C70C53CF832B822B52
:10302000FACF282B8091D4018227F5CF8695FF20F7
:1030300011F0812F8170882309F443CF402F4295EE
:1030400046954770440F440F802F8F70042E01C0A7
:10305000880F0A94EAF7202F207104FF07C02FE0A1
:1030600030E001C0220F4A95EAF720951695169593
:103070001370123069F050F430919302113029F03E
:10308000822B83230E94630C1CCF832B822BFACFCD
:10309000282B809193028227F5CF1F70FF2029F003
:1030A000812F0E94BB0C802F3ACF802F0E94AC0F43
:1030B000812F0E94760C05CF802F92EFA916B1F1D7
:1030C0009A1570F0A0EFAA16D1F0B1EFAB1691F0FF
:1030D000FF2009F45CC0D110A6CE812F8F712AC0C9
:1030E000E3EFAE1651F1F4EFAF12F2CF8091DE01B3
:1030F00082FD2FC0812F8F71FF20D9F21BC0FF20CE
:1031000081F024E02D1508F4DCCE1F7181E090E001
:10311000012E01C0880F0A94EAF790919302892743
:10312000B1CF35E03D1508F4CCCEEFCF812F8F71B4
:10313000F110BFCF0E94BB0CC4CE80E0FF2009F489
:10314000A1CF1F7181E0012E01C0880F0A94EAF718
:1031500099CFFF2089F01F71812F0E94BB0C8091B5
:10316000DE0182FF07C0A8E01A9FC001112483601E
:103170008093C801812FDECF81E00E94830CB1E0F3
:10318000BD1508F09ECE82E00E94830C9ACEDD2011
:1031900059F0893309F0F8CEEFEFF7EE23E0E15074
:1031A000F0402040E1F7EECE812F8F7182CFF0E129
:1031B0008F16FFE59F0609F419CC21E182162FE551
:1031C000920609F41DCCE3EF8E16ECE59E0609F499
:1031D0001DCC08F0CAC028ED82162CE5920609F431
:1031E00011CC39ED83163CE5930609F41BCC87ED31
:1031F00088168CE5980609F0C6C026E241EE61EE1D
:10320000C3010E9463100C94151185E0F301DE01E7
:10321000119601900D928A95E1F7D30112962C91A7
:1032200089819A8121110C94E5100E946006182F63
:103230000C94ED108AE588168DE5980609F4D1CD39
:1032400078F48114ACE59A0609F46ACDBEED8B16CC
:10325000BCE59B0609F07ACD0E94AE0B0E94960F4A
:10326000ECE58E16EDE59E0609F467CD08F4BBCDBE
:1032700027EA82162DE5920689F368CD8091D20166
:103280008272E93C3CE5F30709F442CD08F045C001
:10329000E53CACE5FA0709F436CD48F5E33C2CE50E
:1032A000F20709F424CD08F029CDE23CFC4509F0F1
:1032B0004DCD8091660280FF12CD8E7F8093660295
:1032C0006091660270916702809168029091690234
:1032D0000E941B09EFEFF0E722E0E150F0402040B0
:1032E000E1F700C000000E9461070C94151143EF44
:1032F00059E060E07AE0E73C9CE5F90709F4FBCC93
:1033000047E15AE06DE07AE0E83CFC4508F4F3CC94
:1033100040E05AE063EF79E0EECCED3CBCE5FB0722
:1033200009F4FBCCB0F44CE45BE06EE57BE0EB3CF5
:103330003CE5F30709F4DFCC46EE59E069ED79E0AE
:10334000EC3CFC4508F4D7CC4EE55BE06CE47BE05C
:10335000D2CCE63DACE5FA0710F40C941511ED352E
:10336000FD4511F40C941511F1CC95EF89169CE5EF
:10337000990609F453CB08F44DCBB6EF8B16BCE598
:103380009B0609F48AC010929202F3E08F16FDE5C5
:103390009F0608F04ACB2AEF82162CE5920630F4FD
:1033A000C40182509C45449708F04CCB0E940D0903
:1033B0009093DE018093DD01A2E18A16ACE59A06C6
:1033C00009F461CC08F09FCBE9E08E16ECE59E068F
:1033D00009F433CC08F068CB25E082162CE5920680
:1033E00009F41FCC08F04CCB83E088168CE59806D6
:1033F00009F40FCC08F011CC8091DD018160A2E0CE
:103400008A16ACE59A0609F47BCB6091DD01109138
:10341000DE0184E090E00E942423612F82E290E0AC
:103420000E9424230E94CC0C0C941511E33F2CE540
:10343000F20709F4EBCA30F5E83D8CE5F80709F42A
:10344000E1CAE93D9CE5F90709F4ECCAE73DACE5C2
:10345000FA0709F4D2CEE6313CE5F30709F00ECFC6
:1034600080918301811139CC89E2ECE5F1E0919101
:10347000891303C0DF0111971C92B1E0E236FB070C
:10348000B1F7F5CAE53FBCE5FB0709F4C7CA08F484
:10349000C1CAE63F3CE5F307F1F627E245EE66EEEA
:1034A000AFCE1F93CF93DF9380919501807F09F07A
:1034B00049C080919201882309F444C08091C701DA
:1034C000D09196016091900170919101A09193012A
:1034D000B0919401C62FC72316E0D81799F190E058
:1034E000109711F0CF3F19F401968770F6CF189F0F
:1034F0009001199F300D1124F901E956FE4F4181C9
:103500004713F2CF40814613EFCF42814111ECCFF8
:10351000438154814A1B5B0B483C510528F780913D
:1035200095018F70806180939501F901E456FE4FFB
:1035300080818F708061808380E991E00E94CB1050
:103540000E945606DF91CF911F910895A1E1B0E04E
:10355000ECEAFAE10C94BF228C0185E0F801DE016F
:103560001D9601900D928A95E1F7F801E28080E9BD
:10357000A82E81E0B82E609193017091940161159D
:10358000710509F426C19091900140919101892F14
:1035900084238F3F09F41DC120813181C380D480F1
:1035A000F0909201F601E61BF70BFF2009F4DCC056
:1035B00080919501582F507FE83CF10508F09FC09D
:1035C00051116BC0FE2C431314C0921312C0E110B2
:1035D00010C08F70806180939501C5010E94CB104F
:1035E00080919501F80185838F2D6196EAE00C9416
:1035F000DB22C114D10429F0822F83238F3F09F0ED
:1036000003C180E0F82FF170DF2E80FF3CC0809175
:10361000C7014091960156E0841315C02D873E875F
:103620008D859E850E94BD08292F22952F702230FE
:10363000F0F0243018F59F70F1F0F8019581907F3B
:10364000D1F4D12C1EC090E0589FF001599FF00D8D
:103650001124E956FE4F6181361306C0608126139E
:1036600003C06281E6120FC001968770D5CF9F70AC
:1036700011F0882331F3805E883018F3C8010E946E
:10368000CB10FD2CB1CFEE2009F4AECF8091950187
:10369000816080939501F12CA7CF431306C092134C
:1036A00004C0F801EE2009F479C0C8010E94CA08DC
:1036B000882309F1EE20F9F080919501803270F0B5
:1036C000209190013091910138872F831986DB86F4
:1036D000CA868C87CE0107960E94CB1086E0F8013F
:1036E000A0E9B1E001900D928A95E1F70E94511A8C
:1036F000FF24F39479CFC8010E94CB10F9CF511168
:103700000AC080E991E00E94CB1086E0F501119299
:103710008A95E9F7C0CF43130FC092130DC0E11093
:103720000BC0F8018583C8010E94CB1086E0F5012B
:1037300011928A95E9F758CFC8010E94CA088823D8
:10374000D1F2EE20C1F280919501803238F22091C1
:103750009001309191013A8329831B82DD82CC82D2
:103760008E83CE010196B8CFE83CF105F8F6FE2C29
:10377000EE2009F243131FC092131DC080919501E2
:1037800080FD10C0982F907F69F0F8018583903FED
:1037900031F0982F907F905F8F70892B8583C801BF
:1037A0000E94CB1086E0F801A0E9B1E001900D92F3
:1037B0008A95E1F719CFC8010E94CA0881118ECFFE
:1037C00080919501816080939501C8010E94CB1082
:1037D0000BCFEE2009F48FCFC8010E94CA08F82E43
:1037E000882309F488CF86E0F801A0E9B1E00190D0
:1037F0000D928A95E1F780919001909191010E943C
:10380000BD080E94511AF0CE81E08E25FBCEA7E1C3
:10381000B0E0EDE0FCE10C94C6224B8B5C8B6D8B31
:103820007E8B8F8B61111092D1011A8A198A85E0E3
:10383000FE017396DE011D9601900D928A95E1F7C7
:1038400086E0FE013D96DE01179601900D928A9565
:10385000E1F7CE0107960E94A61A882359F016E0D8
:103860008091C70190919601891343C06796E3E068
:103870000C94E22286E0FE013796DE01119601905B
:103880000D928A95E1F78A859B85892B41F38F817B
:10389000988589238F3F19F32091960130E0C90163
:1038A0000196877099274091C7014817190671F44E
:1038B0000E94CC0C109296011092C70186E0E0E9BC
:1038C000F1E0DF011D928A95E9F7C9CF96E0929F5A
:1038D000D001939FB00D1124A956BE4FFE01319621
:1038E00001900D929A95E1F7809396010E945606F9
:1038F000B6CF819FC001112489569E4F0E94A61AFF
:10390000882309F4B3CF8091C70190E001968770B6
:1039100099278093C701A4CFA5E0B0E0E2E9FCE1DC
:103920000C94BE228E010F5F1F4F85E0F8011192AB
:103930008A95E9F78EE3C82E81E0D82EF12CE12C90
:10394000AA24A394B12CF60181916F018F3F09F451
:1039500043C0F894E82FE295EF70F0E021A18F705A
:10396000A50102C0440F551F8A95E2F7CA01922FA4
:10397000982B91A392A18095892382A3789400C06B
:10398000E3E4F1E0912C31E021912F3F09F470C084
:10399000A22FA295AF70B0E090968C9190E02F701E
:1039A00002C0959587952A95E2F780FD61C0832F27
:1039B000982A330F51E0E834F50731F7F6013197D3
:1039C00080818F3F11F00E946F0480EA8A95F1F7A1
:1039D000F801EE0DFF1D9082EFEFEE1AFE0AF5E002
:1039E000EF16F10409F0AFCF45E050E0B80188EDE3
:1039F00091E00E945823892BE9F185E0F801A8EDB8
:103A0000B1E001900D928A95E1F781E08093D701B2
:103A10000E94F2039093D6018093D5012091D501A5
:103A20003091D6014FB7F89480918C0290918D021D
:103A3000A0918E02B0918F024FBF821B930B05970E
:103A4000E8F045E050E068ED71E089EE91E00E9419
:103A50005823892BC1F085E0E8EDF1E0A9EEB1E053
:103A600001900D928A95E1F781E01092D70107C08D
:103A700080E09ECF8091D7018111D0CF80E0259644
:103A8000EBE00C94DA2280E0F0CF90E080E00E943E
:103A90001E23883E9E4F19F40E94F408089580E08A
:103AA00008951F920F920FB60F9211242F933F93F8
:103AB0004F935F936F937F938F939F93AF93BF9336
:103AC000CF93DF93EF93FF93D091E900DF70809164
:103AD000EC00C82FC17080FDC0E81092E900809111
:103AE000F000877F8093F00078940E94D80C1092A9
:103AF000E9008091F00088608093F000CD2BCF70BA
:103B0000C093E900FF91EF91DF91CF91BF91AF9109
:103B10009F918F917F916F915F914F913F912F91E5
:103B20000F900FBE0F901F9018951F920F920FB617
:103B30000F9211242F933F934F935F936F937F9333
:103B40008F939F93AF93BF93EF93FF938091E10087
:103B500082FF09C08091E20082FF05C08091E100F0
:103B60008B7F8093E1008091DA0080FF24C08091F8
:103B7000D80080FF20C08091DA008E7F8093DA0029
:103B80008091D90080FF9DC080E189BD82E189BD1F
:103B900009B400FEFDCF81E080938202809175021E
:103BA000811109C00E9469020E9434038091E200E1
:103BB00084608093E2008091E10080FF17C08091D3
:103BC000E20080FF13C08091E2008E7F8093E200CC
:103BD0008091E20080618093E2008091D800806251
:103BE0008093D80019BC85E0809382028091E10027
:103BF00084FF2BC08091E20084FF27C080E189BD53
:103C000082E189BD89B5982F917080FFFBCF8091AB
:103C1000D8008F7D8093D8008091E1008F7E8093C3
:103C2000E1008091E2008F7E8093E2008091E200CB
:103C300081608093E20080918302882309F447C069
:103C400084E080938202809182028091E10083FF70
:103C500027C08091E20083FF23C08091E100877F2D
:103C60008093E10082E0809382021092830280912F
:103C7000E1008E7F8093E1008091E2008E7F80934F
:103C8000E2008091E20080618093E20042E060E027
:103C900080E00E9402038091F00088608093F00031
:103CA000FF91EF91BF91AF919F918F917F916F9114
:103CB0005F914F913F912F910F900FBE0F901F90EA
:103CC000189519BC109282021092750274CF8091DF
:103CD000E30087FD93E090938202B5CF78941F9222
:103CE0001FB61F9211248F939F93AF93BF93809120
:103CF0008C0290918D02A0918E02B0918F0201965C
:103D0000A11DB11D80938C0290938D02A0938E0211
:103D1000B0938F02BF91AF919F918F911F901FBE63
:103D20001F9018951F921FB61F9211248F939F9377
:103D3000AF93BF9380917102811113C080918C0267
:103D400090918D02A0918E02B0918F024196A11D9B
:103D5000B11D80938C0290938D02A0938E02B0933C
:103D60008F02BF91AF919F918F911F901FBE1F90A7
:103D70001895CDB7DEB7AA970FB6F894DEBF0FBE81
:103D8000CDBF85B7806885BF85B7806885BF84B79C
:103D9000877F84BF0FB6F894A895809160008861F2
:103DA00080936000109260000FBE80E890E00FB634
:103DB000F89480936100909361000FBE8DE694E0CB
:103DC00090935901809358010E9469020E94340324
:103DD0008091E20084608093E20078948091820276
:103DE0008823A1F01091E9001F709091EC00892FB9
:103DF000817090FD80E8182B1092E9008091E80016
:103E000083FD0E94D80C1F701093E90082E084BDEE
:103E100093E095BD9AEF97BD80936E000E94F408E1
:103E2000811102C00E9441080EE311E0E3E4EE2E8E
:103E3000E1E0FE2ED8018D918D018F3F11F00E949F
:103E40006F04E016F106B1F703E411E0F801819187
:103E50008F018F3F11F00E946F04F1E008341F07BB
:103E6000A9F785E0E9EEF1E0DF01282F1D922A9500
:103E7000E9F7E8EDF1E0DF011D928A95E9F70E948C
:103E8000451D811102C00E94AE0B82E090E00E94AD
:103E900010238093E2010E940D099093DE0180932C
:103EA000DD010E948C1CBFEFE6E7F1E0B150E0407D
:103EB000F040E1F700C000000E948C1C8091E901F5
:103EC00080FF08C06FEF7FEF90E080E00E94422308
:103ED0000E943D0783E090E00E9410230E94C70CDF
:103EE000809193020E94210A8091DF01811131C0EB
:103EF0000E94451D811104C00E94AE0B0E949D0BC3
:103F000088E090E00E941823609366027093670235
:103F100080936802909369026E7F71F40E949D0BFA
:103F200088E090E00E941823609366027093670215
:103F300080936802909369020E9457048091660200
:103F400080FF04C060E086950E94700B81E0809342
:103F5000DF018091660281608093660260E0869551
:103F60000E94700B20E04FEF6FEF8FEB0E942E0945
:103F700060E081E00E94700B80E091E090936E021F
:103F800080936D0208E110E089EE91E065E0B62EC5
:103F9000B80E76E9E72EF12C8091820230E4A32E50
:103FA00040E1C42E52E1D52E853009F483C00E9431
:103FB0008C1C93EE892E91E0992E29EE622E21E041
:103FC000722ED301F40191918D9121E0E83EF20728
:103FD00009F47AC09817B9F3D12CD301CD903D01E3
:103FE000F40141904F014C1419F14C24A12C55249B
:103FF0005394842D8521A1F0AEA2DFA291E08C2DF7
:10400000852109F490E098A70E94F2038160782F3F
:104010009AA789A74EA15FA168A58AA50E94071C3F
:10402000A394550CF5E0AF12E4CFF4013197C082B0
:10403000D39425E0D212D1CF8FB7F89440918C025F
:1040400050918D0260918E0270918F028FBF5CC083
:1040500080918202843009F1109271020FB6F894B7
:10406000A895009360000FBEA092600083B7817F87
:10407000846083BF83B7816083BF7894889583B75A
:104080008E7F83BF0FB6F894A895809160008861F9
:1040900080936000109260000FBE8091810288239F
:1040A00049F00E948C1CE9EEF1E0819181111FC260
:1040B000BE12FBCF80918202853009F4C9CF0E94E5
:1040C000CC0C0E94440473CF981386CF0E94F20355
:1040D0006C018091E0019091E101C816D906A1F030
:1040E0008FEF89A38AA31BA20E94F2038160782F1D
:1040F0009DA38CA349A15AA16BA18DA10E94071C6D
:10410000D092E101C092E0010E9444049091E80144
:10411000891769F08093E8018FB7F89440918C0279
:1041200050918D0260918E0270918F028FBF8091AD
:104130008202843009F030CF83E08093E9008091DF
:10414000E80082FF29CF8091E80090E085FF05C05C
:104150000E948802882399F091E08091E8008B7793
:104160008093E800992309F417CFE981E150E33106
:1041700008F089C0F0E0E358FC4D0C94AA2280E2DC
:10418000C82ED12CCE0101964C018091E80085FD0E
:104190000AC08091E8008B778093E8000E94880233
:1041A000882399F3D9CF8091F100D4018D934D01EB
:1041B000B1E0CB1AD10849F7CFCF1A828AE08B83BE
:1041C0002AC08A81823009F4A8C18330A9F08130E5
:1041D00009F059C02FB7F89460918C0270918D024C
:1041E00080918E0290918F022FBF0E94B0226B832C
:1041F0007C838D839E830FC08091E9018B838091A6
:10420000EA018C838091EB018D838091EC018E8398
:104210008091ED018F8380918202843009F0BCCEC1
:10422000D090E9008D2D8F70D82E9091EC00892FC1
:10423000817090FD80E8D82A82E08093E900809127
:10424000E80080FF0DC050E040E060E270E0CE0189
:1042500001960E94B9028091E8008E778093E80071
:104260008D2D8F708093E90097CE8A81823059F42A
:104270006B817C818D819E810E94B02286E290E0DC
:104280000E942423C8CF8FEF8983C5CF4C816B81D7
:104290008A810E9451089827892798279E838D83B9
:1042A000BACF2D813E813227232732274C816B8163
:1042B0008A810E94C907AFCF0E94EF07ACCF8A81E5
:1042C000813809F1A8F4803809F0A5CF8B81E6E99F
:1042D0008E9FC00111246FEF70E00E949622462F3E
:1042E00020E060916802809167020E942E0993CFBE
:1042F000823849F1833809F08ECF20E0409169027D
:104300006C818B81F2CF60E08B810E94700B9B816E
:104310008091660291110FC08E7F80936602FFEF3D
:1043200020E782E0F15020408040E1F700C000002B
:104330000E94610770CF81608093660260E086957D
:104340000E94700B68CF8B8180936A0264CF8A8150
:104350008138D9F070F4803809F05DCF809169021E
:10436000AFEF8A9FC0011124B7010E9496226B8390
:1043700052CF823891F0833809F04DCF8091670297
:104380008B83809168028C8346CF8091660280FF88
:1043900002C0869514CF80E012CF80916A020FCFC1
:1043A0006091660270916702809168029091690243
:1043B0000E941B0930CF80E18A832DCF83E08A835E
:1043C00081E1FDCE6A807B80762467247624FE011D
:1043D00031966F018C808E0E9F2E911CC3018151EE
:1043E0009F4FC814D90409F416CFF1E16F16F3E01A
:1043F0007F0660F40E941023D60114968C93FFEF81
:104400006F1A7F0A2FEFC21AD20AE8CFF601148280
:10441000F6CFCA80DB80DC24CD24DC24CE010196DB
:104420003C018C808C0C9D2C911CC60181519F4FAE
:10443000C814D90409F4EFCEA1E1CA16A3E0DA0644
:1044400020F4F30164810E942423FFEF6F1A7F0A96
:104450002FEFC21AD20AE9CF0E94B907DCCE84E05E
:10446000ABCF6A807B80762467247624CE010196C8
:104470006C018C80880E992E911CC3018796C814FC
:10448000D90409F4C8CEA8EC6A16710458F40E9445
:104490001023F6018483BFEF6B1A7B0AEFEFCE1A6D
:1044A000DE0AEBCFD60114961C92F5CFCA80DB80D2
:1044B000DC24CD24DC24CE0101963C018C808C0CC4
:1044C0009D2C911CC60187968C149D0409F4A3CEE3
:1044D000A8ECCA16D10420F4F30164810E942423BD
:1044E000FFEF6F1A7F0A2FEFC21AD20AEBCFC9BCB7
:1044F000D9BC09B400FEFDCF8091D8008F7D809398
:10450000D8008091E00082608093E0008091E0001C
:1045100081FDFCCF0E94CC0CCDCD86E290E00E94C4
:1045200010231B821C821D828E8375CEAA1BBB1B8F
:1045300051E107C0AA1FBB1FA617B70710F0A61BA3
:10454000B70B881F991F5A95A9F780959095BC01C4
:10455000CD010895EE0FFF1F0590F491E02D099411
:1045600069279627692778278727782708952F9224
:104570003F924F925F926F927F928F929F92AF92F3
:10458000BF92CF92DF92EF92FF920F931F93CF9340
:10459000DF93CDB7DEB7CA1BDB0B0FB6F894DEBFD7
:1045A0000FBECDBF09942A88398848885F846E84FD
:1045B0007D848C849B84AA84B984C884DF80EE8047
:1045C000FD800C811B81AA81B981CE0FD11D0FB650
:1045D000F894DEBF0FBECDBFED010895002E083068
:1045E00090F0982F872F762F652F542F432F322F3F
:1045F00022270850F4CF220F331F441F551F661F78
:10460000771F881F991F0A95B2F7002D08952A1564
:104610003B054C055D056E057F05800791070895F4
:10462000F999FECF92BD81BDF89A992780B508957A
:10463000A6E1B0E044E050E00C944A23A8E1B0E0E9
:1046400042E050E00C944A23262FF999FECF92BD08
:1046500081BDF89A019700B4021639F01FBA20BD47
:104660000FB6F894FA9AF99A0FBE08950396272F79
:104670000E9425230E942423252F0E942523242FD6
:104680000C9425230196272F0E9425230C94242384
:10469000DC01CB01FC01F999FECF06C0F2BDE1BD02
:1046A000F89A319600B40D9241505040B8F70895F1
:1046B000FB01DC0104C08D910190801921F441506F
:1046C0005040C8F7881B990B0895F894FFCFB90D97
:1046D000E10D840FE10D840F140E350E840F330F9E
:1046E000400FFA16FA1633173317C81761176117F8
:1046F0006117E2174D185C185C18DD20E1203521A8
:10470000462151215C215F21A721D0214321432152
:10471000DB21DE21E22109222C222F223122562206
:10472000EF031007EE030B070607ED0301818283F9
:10473000E200E900EA00B500B600B700CD00830151
:10474000CC008A0192019401210223022402250255
:10475000260227022A02B300B4006F007000C6F0E0
:10476000969236F5673732344022320001DE00ACD3
:0847700000CA03E30303040087
:00000001FF
